:020000040000fa
:080000000001040000000000f3
:020000040000fa
:04000800ec02000006
:020000040000fa
:04000c00ec02000002
:020000040000fa
:04001000ec020000fe
:020000040000fa
:04001400ec020000fa
:020000040000fa
:04001800ec020000f6
:020000040000fa
:04001c00ec020000f2
:020000040000fa
:04002000ec020000ee
:020000040000fa
:04002400ec020000ea
:020000040000fa
:04002800b80b000011
:020000040000fa
:04002c00ec020000e2
:020000040000fa
:04003000ec020000de
:020000040000fa
:04003400260b000097
:020000040000fa
:04003800ec020000d6
:020000040000fa
:04003c00ec020000d2
:020000040000fa
:040040005e0b000053
:020000040000fa
:040044007e0b00002f
:020000040000fa
:04004800a80100000b
:020000040000fa
:04004c00380a00006e
:020000040000fa
:04005000ec020000be
:020000040000fa
:04005400080a000096
:020000040000fa
:04005800ec020000b6
:020000040000fa
:04005c00ec020000b2
:020000040000fa
:04006000ec020000ae
:020000040000fa
:04006400ec020000aa
:020000040000fa
:04006800ec020000a6
:020000040000fa
:04006c00ec020000a2
:020000040000fa
:04007000ec0200009e
:020000040000fa
:04007400ec0200009a
:020000040000fa
:04007800ec02000096
:020000040000fa
:04007c00ec02000092
:020000040000fa
:04008000ec0200008e
:020000040000fa
:04008400ec0200008a
:020000040000fa
:04008800ec02000086
:020000040000fa
:04008c00ec02000082
:020000040000fa
:04009000ec0200007e
:020000040000fa
:04009400ec0200007a
:020000040000fa
:04009800ec02000076
:020000040000fa
:04009c00ec02000072
:020000040000fa
:0400a000ec0200006e
:020000040000fa
:0400a400ec0200006a
:020000040000fa
:0400a800ec02000066
:020000040000fa
:0400ac00ec02000062
:020000040000fa
:0400b000ec0200005e
:020000040000fa
:0400b400ec0200005a
:020000040000fa
:0400b800ec02000056
:020000040000fa
:0400bc00ec02000052
:020000040000fa
:0400c000ec0200004e
:020000040000fa
:0400c400ec0200004a
:020000040000fa
:0400c800ec02000046
:020000040000fa
:0400cc00ec02000042
:020000040000fa
:0400d000ec0200003e
:020000040000fa
:0400d400ec0200003a
:020000040000fa
:0400d800ec02000036
:020000040000fa
:04010800ec02000005
:020000040000fa
:04010c00ec02000001
:020000040000fa
:04011000ec020000fd
:020000040000fa
:04011400ec020000f9
:020000040000fa
:04011800ec020000f5
:020000040000fa
:04011c00ec020000f1
:020000040000fa
:04012000ec020000ed
:020000040000fa
:04012400ec020000e9
:020000040000fa
:04012800ec020000e5
:020000040000fa
:04012c00ec020000e1
:020000040000fa
:04013000ec020000dd
:020000040000fa
:04013400ec020000d9
:020000040000fa
:04013800ec020000d5
:020000040000fa
:04013c00ec020000d1
:020000040000fa
:04014000ec020000cd
:020000040000fa
:04014400ec020000c9
:020000040000fa
:04014800ec020000c5
:020000040000fa
:04014c00ec020000c1
:020000040000fa
:04015000ec020000bd
:020000040000fa
:04015400ec020000b9
:020000040000fa
:04015800ec020000b5
:020000040000fa
:04015c00ec020000b1
:020000040000fa
:04016000ec020000ad
:020000040000fa
:04016400ec020000a9
:020000040000fa
:04016800ec020000a5
:020000040000fa
:04016c00ec020000a1
:020000040000fa
:04017000ec0200009d
:020000040000fa
:04017400ec02000099
:020000040000fa
:04017800ec02000095
:020000040000fa
:04017c00ec02000091
:020000040000fa
:04018000ec0200008d
:020000040000fa
:04018400ec02000089
:020000040000fa
:04018800ec02000085
:020000040000fa
:04018c00ec02000081
:020000040000fa
:04019000ec0200007d
:020000040000fa
:04019400ec02000079
:020000040000fa
:04019800ec02000075
:020000040000fa
:04019c00ec02000071
:020000040000fa
:0401a000ec0200006d
:020000040000fa
:0401a400ec02000069
:020000040000fa
:0401a800ec02000065
:020000040000fa
:0401ac00ec02000061
:020000040000fa
:0401b000ec0200005d
:020000040000fa
:0401b400ec02000059
:020000040000fa
:0401b800ec02000055
:020000040000fa
:0401bc00ec02000051
:020000040000fa
:0401c000ec0200004d
:020000040000fa
:0401c400ec02000049
:020000040000fa
:0401c800ec02000045
:020000040000fa
:0401cc00ec02000041
:020000040000fa
:0401d000ec0200003d
:020000040000fa
:0401d400ec02000039
:020000040000fa
:0401d800ec02000035
:020000040000fa
:100200002f8220000eff20000e0188000000000059
:10021000000020000000e000020032000001200089
:10022000200288000c000700a0d32000010020005d
:1002300011000700000020000000e0000200320072
:100240000000020000000000ea0b020000000000b5
:100250000040da000000fe004440a9000000200039
:100260000000e0000300320000002000a001880030
:100270004440a8000000060091018800800078003a
:100280000000eb0015003700e280400032a0b4000f
:100290009101ba00e280400032a0b4009102ba009d
:1002a000e280400032a0b4000002eb00472bde00e9
:1002b000f507b200602ce10004003a000059eb00a1
:1002c0008301e900fdff3e00040037006128e100e2
:1002d000010032000082eb000b00070011c3ba00de
:1002e0001101ba000604e00003003a000200e00039
:1002f000e5ff3a0000000600f607b200960188000c
:1003000082007800f5ff37003159ba008301e90017
:100310000c0032002159ba008301e90008003200c4
:100320000400e00003003a00e280400032a0b40084
:10033000f5ff370011d9ba008301e900faff3a004e
:100340008100e800e180400032a0b4000000060017
:100350003400f800881f780008002000a8018800f9
:100360004f0478000000fa008500a9000080fa0020
:100370003400f900004006000000fa0023c2a90082
:1003800023a2a9002362a9002342a9002322a900d5
:100390002302a90022e2a90022c2a90022a2a800e9
:1003a0008500a9008d00a80021e2a8000080fa00c5
:1003b000000006000000fa00d442a8000080fa0005
:1003c000000006000000fa00d442a9000080fa00f4
:1003d000000006000200fa00000f78009e0078007e
:1003e0002111880000000000001180006100600001
:1003f0000000e000fcff3200201180000040780087
:100400000080fa00000006000200fa00edff07007d
:1004100060002000efff0700004f7800e5ff0700b5
:100420000080fa00000006000200fa00e5ff070065
:1004300040002000e7ff0700004f7800ddff0700c5
:100440000080fa00000006000200fa00881f780011
:1004500000047800dbff070050002000ddff0700ec
:10046000004f78000000eb00daff0700004f780033
:10047000d0ff07000000eb00000c78001e4c780055
:10048000080078004f0478000080fa0000000600a1
:100490000a00fa0040479800320798004307980086
:1004a000d9ff0700c7ff070020002000c9ff070091
:1004b000004f78003e009000ce0090004008de0023
:1004c000004078000080fb00c2ff0700004f78006a
:1004d0003e009000ce0090004809dd004800de009c
:1004e00000007100c808de00004078000080fb00ba
:1004f000b8ff0700004f78003e00900000407800f1
:100500000080fb00b3ff0700004f78004e409000d2
:100510000080fb00afff0700004f7800a5ff070039
:10052000000000000e80e800c7ff07001e009000da
:10053000610060000000e000faff3a00baff070027
:100540000080fa00000006000600fa00100798007c
:10055000210798009bff0700300020009dff070047
:10056000004f78001e009000ae0090004008de00b2
:10057000004078000080fb0096ff0700004f7800e5
:100580001e009000ae0090004809dd004800de002b
:1005900000007100c808de00004078000080fb0009
:1005a0008cff0700004f78001e009000004078008c
:1005b0000080fb0087ff0700004f78000000eb0081
:1005c00084ff0700004f78007aff07001e40780084
:1005d0000080fa00000006000040da000000fe0083
:1005e00003f0a200889fbe008a9fbe008c1f780087
:1005f000ca000700d10033006450e1004f00320010
:100600006420e1005200320003826c0007003b00ce
:100610000905d0000306d000820f54000c065d00cf
:1006200002003900020032008901780003067800d8
:100630008582550004003d000003fd008103fd009c
:100640008502ea008b854200840f720002003b00a5
:1006500060001000e08018006011b8000005eb0099
:100660007a28e1000a00390006007800c75ddd0045
:10067000f707b200878075002d0037008281710076
:100680000a017800610560008180d1000080d300fc
:100690008502e900f9ff3b0006044000878448001a
:1006a00002003b0060041400e0841c000988a300e1
:1006b000070032008a81710082817100610164004b
:1006c0008904d1000884d3008b05e80017003700a7
:1006d0000978a30013003a000b00e0001300340077
:1006e0008b05e9000804440089844c000a44740026
:1006f0000978a3000d003a000b00e0000700340069
:100700008b05e9000804440089844c0001003a008c
:100710000b0020000978a300f7ff32000001eb0076
:1007200002003700828171000a017800550007003d
:100730000cf0a70001f0a000890037006420e10060
:1007400002003a00838f6c00890033000801be006c
:100750000200be0082003700889fbe008a9fbe0054
:100760008c1f78006d0007007400330003866c0056
:100770006450e1002e0032006420e10033003200ba
:100780006150e1002f0032006120e10031003200b1
:1007900085855500eb07b000090020000804200003
:1007a000050037000804440089844c000a00310029
:1007b0000603430087834b000001530081815b00e7
:1007c000f8ff33000203be000800a0000804440044
:1007d00089844c00f6ff3900c639dd0083017300bf
:1007e00001003200130020008904d1000884d300e6
:1007f0000998a300050032000800a7000300a0002c
:100800008904d1000884d3008b05e8008904d10055
:100810000884d3000001eb000281d2001900070018
:1008200001f0a1000cf0a70001f0a0004c0037007f
:100830006420e1004e0032000801be000200be004c
:10084000f7ff37006120e100490032006000b80086
:10085000f3ff37000000200001f82700f0ff370009
:100860001400200079003700f4ff2f0077003700d4
:100870004f89de00820178008f0037006011b800d8
:100880009d00370081002000618055000b003d0075
:100890000b00200061fe2f000100e1001d0034006c
:1008a00082817100610164008904d1000884d30051
:1008b0000000e800faff3a007100200061006400c7
:1008c000030070000200600009003200610444006f
:1008d000e0844c000988a500050032008b05e80083
:1008e0006808e10002003a008904d1000884d300be
:1008f000f20f20000258e10005003d00c75ddd0059
:10090000f907b20089807500080078000000060031
:100910000bf827008b007800000005000004be00e3
:10092000a40007000003be000405be000200be00d4
:10093000a0000700844f7500000006000200be0002
:100940006450e100050036006420e100020036003a
:100950000968a30001003a000800be000160a00081
:100960004f0678004f05be004f04be000000060091
:10097000f0ff2f00f1ff2700f9ff3700889fbe002e
:100980008a9fbe008c1f7800e4ff0700ebff330056
:1009900003866c006450e100240032006420e10012
:1009a000270032006150e100220032006120e100a6
:1009b000210032008b854200eb07b1000134b80002
:1009c000003ab8000804420089844a00013ab8009d
:1009d0000030b8008880400009014a00040033005c
:1009e0000000400081804800020149008b05e900b9
:1009f000c909dd00830170000100320013002000ee
:100a0000c814de004814dd004709de001200b20001
:100a1000c808de00088470009aff070001f0a100fa
:100a20000cf0a70001f0a000cdff37006120e1002d
:100a3000cfff32000801be000200be00f7ff370002
:100a40006150e100fcff3a00c9ff3700889fbe00fb
:100a50008a9fbe00841f7800b0ff07004f00780017
:100a600011003300f0ff2f00838f6c0006003b0065
:100a7000040565000a00a7000800370009f0a60079
:100a80001000200008003700820f5400838f5c00a4
:100a9000030039001000200001003e00000020008b
:100aa00009f0a7000000ea004f05be004f04be0099
:100ab0000000e00000000600881f780003047800b2
:100ac0000300e00007003d0060001000e080180017
:100ad00060011900e081190002003b0001f02d00c7
:100ae000030037000400070008f0a70001f0a00091
:100af0004f04780000000600889fbe008a9fbe0059
:100b0000008270000402710004827100260032002d
:100b10000004be000200be006011b8006b09200096
:100b2000950220000182cf000a0039000541b10082
:100b30000082cf00070039000541b1000982cf00d3
:100b4000040039000541b1000882cf0001003900de
:100b50000541b10005425200120032000a003b007c
:100b600082817100610164008100d1000080d300a6
:100b70008984d3000884d3008b05e8000442e80090
:100b8000f7ff3a00070037000804440089844c004e
:100b900000004800818048008b05e9000442e9001c
:100ba000f9ff3a0037ff07004f05be004f04be00b3
:100bb00000000600c70ade00f107b200f50fb20020
:100bc00008003200e1cf4200020032000170a000b4
:100bd00024000500810f70000100320004080500a8
:100be00044000500810f700002003a001400050067
:100bf0008502e9000000400081c04800fcff3b0086
:080c00000170a00024000500b2
:020000040000fa
:100c08000200fa001ac8bf006011b8001efe0700f3
:100c1800e04080004800de00004f7800120020000d
:100c2800030020001e40780017fe0700e040800007
:100c380000407800220020000300200012fe070078
:100c48001ec8bf0032002000030020000efe07006f
:100c5800004180004800de00004f7800420020007c
:100c6800030020001e40780007fe070000418000b6
:100c780000407800520020000300200002fe070018
:100c88000080fa00000006000000fa006000b800ca
:100c98002bfe07001ae8b700100020000100200012
:100ca80027fe07000080fb00e0408800e04080004d
:100cb8004800dd00e04088002000200001002000fe
:100cc8001ffe07008080fb00e040800001007000ec
:100cd800e0408800300020000100200018fe0700d6
:100ce8001ee8b700400020000100200014fe0700a5
:100cf8000080fb0000418800004180004800dd00c2
:100d08000041880050002000010020000cfe070070
:100d18008080fb00004180000100700000418800d5
:100d28000080fa00000006000000fa001ac8bf00a0
:100d3800ef020700e0408000f90207001ec8bf006c
:100d4800eb02070000418000f502070050408000d8
:100d5800f302070060408000f10207007040800045
:100d6800ef02070080408000ed02070090408000fd
:100d7800eb020700a0408000e9020700b0408000b5
:100d8800e70207000080fa00000006000c00fa00e5
:100d9800889fbe00400798005107980030408000a7
:100da8008000eb00b3fe070002002000433b240054
:100db80067fe07000004be004e0090008000eb00b4
:100dc800acfe07000001be000800be00e9fe0700f7
:100dd800008fbe00304080008000eb00a5fe0700b9
:100de80002002000433b240059fe07000004be0017
:100df8005e0090008000eb009efe07000001be0030
:100e08000800be00dbfe07002007980031079800a5
:100e180018c0b3002e019000be0190001e00be0055
:100e28008dfe07000000e000010034000044eb00e4
:100e38000804e0001b003200204080008000eb0026
:100e48008cfe070018c0b3001e01be0084fe070018
:100e58000000e00001003d000044eb000804e00051
:100e68000e003200204080008000eb0081fe070069
:100e780018c0b3002e019000be01900076fe070056
:100e88000000e000010035000044eb000804e00029
:100e980002003200d522a9001c003700d522a80084
:100ea8001a003700204080008000eb0071fe070028
:100eb80018c0b3001e01be0069fe07000000e00074
:100ec80001003d000044eb000804e0000c003a007b
:100ed800204080008000eb0066fe070018c0b300c9
:100ee8002e019000be0190005bfe07000000e000ac
:100ef800010035000044eb000804e0000200320065
:100f0800d522a90001003700d522a8004f04be0051
:100f18000080fa00000006000e00fa00889fbe005c
:100f2800204f9800610798006000b800008fbe004d
:100f38006000b80020079800310798000000eb0017
:100f480040079800304080008000eb0049fe070011
:100f580002002000433b2400fdfd07000004be0002
:100f68006e0090008000eb0042fe07000001be000a
:100f78000800be007ffe0700200798003107980090
:100f8800304080008000eb003afe07000004be00fd
:100f98002e4890008080fb00400620000088b900a1
:100fa800000078008000eb0032fe07002e01900060
:100fb800be01900088fd07000001be000800be00c9
:100fc80085fd0700008fbe002e4890008080fb0042
:100fd800400620000088b90000007800400798000b
:100fe8004e0090008000eb0022fe070018c0b300fe
:100ff8002e019000be01900017fe07000000e000df
:10100800010034000044eb000804e000270032002f
:101018002e4890008080fb00400620000088b90020
:10102800000078008000eb0012fe07000001be00ff
:101038002e009000be00900067fd0700008fbe00e4
:10104800204080008000eb000afe070018c0b300b3
:101058001e01be0002fe07000000e00001003d0086
:101068000044eb000804e0000e003200204080003d
:101078008000eb00fffd070018c0b3002e019000b0
:10108800be019000f4fd07000000e00001003500fb
:101098000044eb000804e00002003200d522a90059
:1010a8002e003700d522a8002c00370030408000e1
:1010b8008000eb00effd07000004be002e48900002
:1010c8008080fb00400620000088b90000007800fe
:1010d8008000eb00e7fd07002e019000be019000a4
:1010e8003dfd07000001be000800be003afd0700f4
:1010f800008fbe00204080008000eb00ddfd07006f
:1011080018c0b3001e01be00d5fd07000000e000b6
:1011180001003d000044eb000804e0000c003a0028
:10112800204080008000eb00d2fd070018c0b3000b
:101138002e019000be019000c7fd07000000e000ee
:10114800010035000044eb000804e0000200320012
:10115800d522a90001003700d522a8004f04be00ff
:101168000080fa00000006001000fa00889fbe0008
:10117800404f9800710798006000b8001007980069
:10118800210798006000b8003007980041079800d0
:101198000000eb00500798000000eb00000f7800fb
:1011a8007e0090000000e000050035008116200058
:1011b8007e00900000805000000f78000400370087
:1011c8007e00900000f0a7000000ea00000f780001
:1011d800304080008000eb00a6fd070002002000e0
:1011e800433b24005afd07000004be001e0078009f
:1011f8008000eb009ffd07000001be000800be0054
:10120800dcfd070030079800410798003040800057
:101218008000eb0097fd07000004be004e489000d8
:101228008080fb00400620000088b900000078009c
:101238008000eb008ffd07003e019000ce0190007a
:10124800e5fc07000001be000800be00e2fc070044
:1012580010079800210798004e4890008080fb00f6
:10126800400620000088b900000078005007980068
:101278005e0090008000eb007efd070018c0b30000
:101288003e019000ce01900073fd07000000e000d1
:10129800010034000044eb000804e000290032009b
:1012a8004e4890008080fb00400620000088b9006e
:1012b80000007800cf80de006bfd07000001be0053
:1012c8003e009000ce009000c3fc07001007980075
:1012d80021079800204080008000eb0065fd070092
:1012e80018c0b3001e019000ae0190005cfd07001d
:1012f8000000e00001003d000044eb000804e000ad
:101308000e003200204080008000eb0059fd0700ed
:1013180018c0b3003e019000ce0190004efd0700ba
:101328000000e000010035000044eb000804e00084
:1013380002003200d462a80030003700d462a9004d
:101348002e003700304080008000eb0049fd070088
:101358000004be004e4890008080fb00400620003c
:101368000088b900000078008000eb0041fd07000c
:101378003e019000ce01900097fc07000001be00de
:101388000800be0094fc0700100798002107980089
:10139800204080008000eb0036fd070018c0b30035
:1013a8001e019000ae0190002dfd07000000e00036
:1013b80001003d000044eb000804e0000c003a0086
:1013c800204080008000eb002afd070018c0b30011
:1013d8003e019000ce0190001ffd07000000e000d4
:1013e800010035000044eb000804e0000200320070
:1013f800d462a80001003700d462a9004f04be00df
:101408000080fa0000000600801f78003400f80011
:1014180000002000a00188000000fa008560a900f3
:10142800001480005040880010148000604088003c
:10143800301480007040880040148000804088008c
:10144800501480009040880080148000a0408800dc
:10145800c0148000b04088000080fa003400f90011
:101468004f007800004006003600f800809fbe005c
:10147800829fbe00849fbe00869fbe003400f80095
:1014880000002000a00188000000fa008520a900c3
:1014980018c8bf000004e00013003a009010800054
:1014a80051042000810f50000c003200510520002b
:1014b800810f50000500320041042000810f5000c8
:1014c80057003a0018fe07005600370010c0b30056
:1014d80018e8b7001968ef0052003700c8fd070088
:1014e800000000004f00370019c8bf000080fb0053
:1014f800e20f50001e003200e20f500005003c00d1
:101508000000e0000a003200e10f50000f00320036
:1015180038003700e40f500024003200e40f500078
:101528001b003500e50f500029003200310037005c
:1015380090108000004078001ae8b70019c8bf0072
:101548000040e80019e8b7002a0037009010800032
:10155800e0408800e04080004800dd00e04088006e
:1015680019c8bf000040e80019e8b700210037009b
:10157800e14080009010800001007000e040880089
:1015880019c8bf000040e80019e8b7001900370083
:1015980090108000004078001ee8b70019c8bf000e
:1015a8000040e80019e8b7001200370090108000ea
:1015b80000418800004180004800dd0000418800ab
:1015c80019c8bf000040e80019e8b7000900370053
:1015d80000418000800078009010800001007000b9
:1015e8000041880019c8bf000040e80019e8b700aa
:1015f8000000000019c8bf00e64f500009003a007b
:101608001868ef00f0c4b300b9000700b0c4b30015
:10161800b700070010c2b300b5000700010037008b
:10162800000000000080fa003400f9004f03be00fb
:101638004f02be004f01be004f00be003600f90049
:1016480000400600809fbe00821f78003400f8002a
:1016580000002000a00188000000fa008460a900b2
:1016680041168000002020000080600000f0a700e4
:101678000000ea000000e9004f00de0000407800aa
:101688000080fb00610060004900dd004216800018
:10169800f1df2f0081006100010070004016880012
:1016a8000080fa003400f9004f0178004f00be00b6
:1016b80000400600801f78003400f8000000200079
:1016c800a00188000000fa0084c0a9000040800042
:1016d8000000e80000408800204080000000e8008a
:1016e800204088000080fa003400f9004f0078009c
:1016f80000400600809fbe00821f78003400f8007a
:1017080000002000a00188000000fa0084e0a90081
:1017180041168000004020000080600000f0a70013
:101728000000ea000000e9004f00de0000407800f9
:101738000080fb00610060004a00dd004216800066
:10174800f1bf2f0081006100010070004016880081
:101758000868ef000080fa003400f9004f017800b3
:101768004f00be0000400600809fbe003400f80015
:1017780000002000a00188000000fa008400a900f1
:101788001040800000004000800078000040800089
:10179800808f5000030031002040800030408800d6
:1017a8000428ef0000408000104088000028ef0067
:1017b80010c0b30008e8b7000a21ef000080fa0063
:1017c8003400f9004f00be00004006000400fa0093
:1017d800000f7800110798009500070073000700b4
:1017e80039000700e2fa07008200a8008c00a80070
:1017f8008400a90021158000f00f2e008080600071
:1018080000f02000010070002015880021158000dc
:1018180000fc2f0000806000f000b3002015880055
:10182800a342a800101580000020a0000030a000ee
:101838000040a0000050a00010158800001580008e
:101848000050a0000060a0000070a00000158800f3
:10185800a042a800a022a8000080eb005015880034
:10186800a1e2a8008560a9008d60a80006fd070018
:1018780008c8bf000004e000090032000040eb0087
:101888003c000700e14080001ac8bf00a2fd070025
:10189800014180001ec8bf0033fe0700f4ff370077
:1018a80010c0b30033000700d522a800d462a800f6
:1018b8000028ef000228ef000428ef000628ef00b8
:1018c8000868ef00eaff37000000fa000de2a80000
:1018d8000d42a8000f42a800a0002000a010880018
:1018e8008520a9008d20a8000080fa0000000600cd
:1018f8000200fa00004f780000000000711080001c
:1019080000102000008060000000e000fbff3200b3
:101918001e80fb00801088000080fa00000006008e
:101928000200fa00000f780000000000711080002b
:1019380000102000008060000000e000fbff320083
:101948001e0078004800de008010880000000000bb
:101958007110800000102000008060000000e0008e
:10196800fbff32009e007800811088000080fa009a
:10197800000006000200fa00004f78009e40780040
:1019880061c060000080fb00610060004900dd006c
:1019980062048000f1df2f00810061000100700007
:1019a800600488000080fa00000006000000fa00c9
:1019b8000421a900200880000040a0000050a000d9
:1019c80020088800f0e92100100888008460a90038
:1019d8008c60a80005e1a8001021a90080088000fb
:1019e8000040a1000050a10080088800800c200061
:1019f8006008880084c0a9008cc0a80011e1a80074
:101a08001221a900900880000040a0000050a0000a
:101a180090088800f0e921007008880084e0a90097
:101a28008ce0a80013e1a8000080fa00000006007e
:101a38000000fa00c742a900c722a900d242a900a3
:101a4800d262a900d322a90040ec2e0040158800dc
:101a5800c942a800c922a800d442a800d522a800db
:0c1a6800d462a8000080fa000000060014
:020000040000fa
:101a7400000800001a000000000000001a0800001e
:101a84000800000002000000010002000003000042
:081a9400040000004e0d80006b
:020000040000fa
:041a9c000000000046
:020000040000fa
:0200000401f009
:04000000f7bf000046
:020000040000fa
:0200000401f009
:04000400ff7f00007a
:020000040000fa
:0200000401f009
:04000800ffff0000f6
:020000040000fa
:0200000401f009
:04001400ffff0000ea
:020000040000fa
:0200000401f009
:04001800ffff0000e6
:00000001FF
