:020000040000fa
:080000000001040000000000f3
:020000040000fa
:100008009a0100009a0100009a0100009a0100007c
:100018009a0100009a0100009a0100009a0100006c
:10002800aa0900009a0100009a0100003e09000098
:100038009a0100009a0100008a0900009a01000054
:100048009a010000120900009a010000fe08000051
:100058009a0100009a0100009a0100009a0100002c
:100068009a0100009a0100009a0100009a0100001c
:100078009a0100009a0100009a0100009a0100000c
:100088009a0100009a0100009a0100009a010000fc
:100098009a0100009a0100009a0100009a010000ec
:1000a8009a0100009a0100009a0100009a010000dc
:1000b8009a0100009a0100009a0100009a010000cc
:1000c8009a0100009a0100009a0100009a010000bc
:1000d8009a0100009a0100009a0100009a010000ac
:1000e8009a0100009a0100009a0100009a0100009c
:0800f8009a0100009a010000ca
:020000040000fa
:100108009a0100009a0100009a0100009a0100007b
:100118009a0100009a0100009a0100009a0100006b
:10012800aa0900009a0100009a0100003e09000097
:100138009a0100009a0100008a0900009a01000053
:100148009a010000120900009a010000fe08000050
:100158009a0100009a0100009a0100009a0100002b
:100168009a0100009a0100009a0100009a0100001b
:100178009a0100009a0100009a0100009a0100000b
:100188009a0100009a0100009a0100009a010000fb
:100198009a0100009a0100009a0100009a010000eb
:1001a8009a0100009a0100009a0100009a010000db
:1001b8009a0100009a0100009a0100009a010000cb
:1001c8009a0100009a0100009a0100009a010000bb
:1001d8009a0100009a0100009a0100009a010000ab
:1001e8009a0100009a0100009a0100009a0100009b
:0801f8009a0100009a010000c9
:020000040000fa
:10020000cf8020000eff20000e01880000000000bb
:10021000000020000000e000020032000001200089
:10022000200288000c00070040a9200001002000e7
:1002300011000700000020000000e0000200320072
:100240000000020000000000fe09020000000000a3
:100250000040da000000fe004440a9000000200039
:100260000000e0000300320000002000a001880030
:100270004440a8000000060091018800800078003a
:100280000000eb0015003700e280400032a0b4000f
:100290009101ba00e280400032a0b4009102ba009d
:1002a000e280400032a0b4000002eb00472bde00e9
:1002b000f507b200602ce10004003a000059eb00a1
:1002c0008301e900fdff3e00040037006128e100e2
:1002d000010032000082eb00040007001101ba00a7
:1002e0000200e000e8ff3a00000006003159ba00c1
:1002f0008301e9000c0032002159ba008301e900b2
:10030000080032000400e00003003a00e2804000f0
:1003100032a0b400f5ff370011d9ba008301e9001b
:10032000faff3a008100e800e180400032a0b4000a
:10033000000006000040da000000fe0003f0a2000a
:10034000889fbe008a9fbe008c1f7800ca000700ed
:10035000d10033006450e1004f0032006420e1001e
:100360005200320003826c0007003b000905d000f8
:100370000306d000820f54000c065d000200390015
:10038000020032008901780003067800858255005a
:1003900004003d000003fd008103fd008502ea002a
:1003a0008b854200840f720002003b006000100049
:1003b000e08018006011b8000005eb007a28e10029
:1003c0000a00390006007800c75ddd00f707b200bb
:1003d000878075002d003700828171000a01780046
:1003e000610560008180d1000080d3008502e900b2
:1003f000f9ff3b00060440008784480002003b00f0
:1004000060041400e0841c000988a3000700320087
:100410008a81710082817100610164008904d100c8
:100420000884d3008b05e800170037000978a30083
:1004300013003a000b00e000130034008b05e900c4
:100440000804440089844c000a4474000978a3001d
:100450000d003a000b00e000070034008b05e900b6
:100460000804440089844c0001003a000b0020007d
:100470000978a300f7ff32000001eb00020037000b
:10048000828171000a017800550007000cf0a70076
:1004900001f0a000890037006420e10002003a006a
:1004a000838f6c00890033000801be000200be008b
:1004b00082003700889fbe008a9fbe008c1f780094
:1004c0006d0007007400330003866c006450e10087
:1004d0002e0032006420e100330032006150e10060
:1004e0002f0032006120e100310032008585550087
:1004f000eb07b000090020000804200005003700c9
:100500000804440089844c000a00310006034300bb
:1005100087834b000001530081815b00f8ff3300ab
:100520000203be000800a0000804440089844c00b7
:10053000f6ff3900c639dd00830173000100320087
:10054000130020008904d1000884d3000998a30077
:10055000050032000800a7000300a0008904d100b4
:100560000884d3008b05e8008904d1000884d300f7
:100570000001eb000281d2001900070001f0a10088
:100580000cf0a70001f0a0004c0037006420e1004f
:100590004e0032000801be000200be00f7ff370027
:1005a0006120e100490032006000b800f3ff37002d
:1005b0000000200001f82700f0ff370014002000a1
:1005c00079003700f4ff2f00770037004f89de00f5
:1005d000820178008f0037006011b8009d0037005d
:1005e00081002000618055000b003d000b002000c1
:1005f00061fe2f000100e1001d00340082817100c6
:10060000610164008904d1000884d3000000e8007f
:10061000faff3a00710020006100640003007000de
:10062000020060000900320061044400e0844c00d4
:100630000988a500050032008b05e8006808e10084
:1006400002003a008904d1000884d300f20f200090
:100650000258e10005003d00c75ddd00f907b2006a
:100660008980750008007800000006000bf827005c
:100670008b007800000005000004be00a400070005
:100680000003be000405be000200be00a00007007b
:10069000844f7500000006000200be006450e100b7
:1006a000050036006420e100020036000968a3005e
:1006b00001003a000800be000160a0004f0678006b
:1006c0004f05be004f04be0000000600f0ff2f00e3
:1006d000f1ff2700f9ff3700889fbe008a9fbe0008
:1006e0008c1f7800e4ff0700ebff330003866c00eb
:1006f0006450e100240032006420e1002700320051
:100700006150e100220032006120e100210032004e
:100710008b854200eb07b1000134b800003ab80005
:100720000804420089844a00013ab8000030b80049
:100730008880400009014a000400330000004000a6
:1007400081804800020149008b05e900c909dd00ec
:10075000830170000100320013002000c814de0085
:100760004814dd004709de001200b200c808de00b0
:10077000088470009aff070001f0a1000cf0a700a8
:1007800001f0a000cdff37006120e100cfff320073
:100790000801be000200be00f7ff37006150e10013
:1007a000fcff3a00c9ff3700889fbe008a9fbe0049
:1007b000841f7800b0ff07004f007800110033005d
:1007c000f0ff2f00838f6c0006003b0004056500de
:1007d0000a00a7000800370009f0a600100020005a
:1007e00008003700820f5400838f5c00030039003b
:1007f0001000200001003e000000200009f0a700ca
:100800000000ea004f05be004f04be000000e000fb
:1008100000000600881f7800030478000300e00051
:1008200007003d0060001000e08018006001190022
:10083000e081190002003b0001f02d0003003700a9
:100840000400070008f0a70001f0a0004f047800a2
:1008500000000600889fbe008a9fbe0000827000d4
:100860000402710004827100260032000004be0000
:100870000200be006011b8006b0920009502200044
:100880000182cf000a0039000541b1000082cf008b
:10089000070039000541b1000982cf00040039008a
:1008a0000541b1000882cf00010039000541b100c7
:1008b00005425200120032000a003b0082817100a2
:1008c000610164008100d1000080d3008984d300dd
:1008d0000884d3008b05e8000442e800f7ff3a00e3
:1008e000070037000804440089844c0000004800d9
:1008f000818048008b05e9000442e900f9ff3a00d5
:1009000037ff07004f05be004f04be000000060081
:10091000c70ade00f107b200f50fb200080032008e
:10092000e1cf4200020032000170a0002400050067
:10093000810f70000100320004080500440005002a
:10094000810f700002003a00140005008502e900e2
:100950000000400081c04800fcff3b000170a00087
:04096000240005006a
:020000040000fa
:100964000200fa00004f78000000000075108000bb
:100974000410200004826200e00f5200fbff3200ea
:100984009e4278000582fb00841088000080fa00f3
:10099400000006000200fa00000f780000000000ca
:1009a400751080000410200004826200e00f5200e1
:1009b400fbff32001e027800841088000000000053
:1009c400751080000410200004826200e00f5200c1
:1009d400fbff32001e0278004822de0084108800eb
:1009e4000080fa00000006000c00fa00889fbe0098
:1009f40040079800510798005440800005002000eb
:100a04000400be00f3fe07000002be000200200046
:100a1400433b24000400be00a5fe07000002be0004
:100a24000404be004e029000050020000400be0035
:100a3400e8fe07000002be000401be000800be007c
:100a440024ff07000002be00048fbe005440800053
:100a5400050020000400be00defe07000002be0008
:100a640002002000433b24000400be0090fe070067
:100a74000002be000404be005e02900005002000d7
:100a84000400be00d3fe07000002be000401be0045
:100a94000800be000fff07000002be0024079800f4
:100aa4003507980018c0b3002e019000be019000d5
:100ab4001e00be00c0fe070000027800e00f5200d6
:100ac400010034000044eb00e04f540023003200e6
:100ad40024408000050020000400be00bdfe070085
:100ae4000002be0018c0b3001e01be000400be0018
:100af400b3fe070000027800e00f520001003d0041
:100b04000044eb00e04f5400120032002440800007
:100b1400050020000400be00aefe07000002be0077
:100b240018c0b3002e019000be0190000400be0066
:100b3400a1fe070000027800e00f5200010035001a
:100b44000044eb00e04f540002003200d522a9001b
:100b540024003700d522a80022003700244080005a
:100b6400050020000400be009afe07000002be003b
:100b740018c0b3001e01be000400be0090fe0700b2
:100b840000027800e00f520001003d000044eb0039
:100b9400e04f540010003a0024408000050020007b
:100ba4000400be008bfe07000002be0018c0b300a4
:100bb4002e019000be0190000400be007efe0700de
:100bc40000027800e00f5200010035000044eb0001
:100bd400e04f540002003200d522a9000100370082
:100be400d522a8004f04be000080fa0000000600d1
:100bf4000e00fa00889fbe00204f980061079800fd
:100c04006022b800048fbe006022b8002407980058
:100c1400350798000002eb00440798005440800018
:100c2400050020000400be006afe07000002be00aa
:100c340002002000433b24000400be001cfe070009
:100c44000002be000404be006e02900005002000f5
:100c54000400be005ffe07000002be000401be00e7
:100c64000800be009bfe07000002be002407980097
:100c74003507980054408000050020000400be00a1
:100c840054fe07000004be002e4a90008482fb003c
:100c94004406200004aab9000402780005002000dc
:100ca4000400be004bfe07000002be002e019000af
:100cb400be0190000400be009ffd07000002be00bc
:100cc4000401be000800be009bfd07000002be0038
:100cd400048fbe002e4a90008482fb00440620004c
:100ce40004aab90004027800440798004e02900058
:100cf400050020000400be0036fe07000002be000e
:100d040018c0b3002e019000be0190000400be0084
:100d140029fe070000027800e00f520001003400b1
:100d24000044eb00e04f5400320032002e4a9000a1
:100d34008482fb004406200004aab900040278005f
:100d4400050020000400be0022fe07000002be00d1
:100d54000401be002e009000be00900076fd070046
:100d64000002be00048fbe00244080000500200065
:100d74000400be0017fe07000002be0018c0b30046
:100d84001e01be000400be000dfe07000002780034
:100d9400e00f520001003d000044eb00e04f54001e
:100da4001200320024408000050020000400be0030
:100db40008fe07000002be0018c0b3002e01900018
:100dc400be0190000400be00fbfd07000002780095
:100dd400e00f5200010035000044eb00e04f5400e6
:100de40002003200d522a9003c003700d522a80019
:100df4003a00370054408000050020000400be0083
:100e0400f4fd07000004be002e4a90008482fb001b
:100e14004406200004aab90004027800050020005a
:100e24000400be00ebfd07000002be002e0190008e
:100e3400be0190000400be003ffd07000002be009a
:100e44000401be000800be003bfd07000002be0016
:100e5400048fbe0024408000050020000400be0072
:100e6400dcfd07000002be0018c0b3001e01be0076
:100e74000400be00d2fd070000027800e00f52001b
:100e840001003d000044eb00e04f540010003a0024
:100e940024408000050020000400be00cdfd0700b2
:100ea4000002be0018c0b3002e019000be019000e5
:100eb4000400be00c0fd070000027800e00f5200ed
:100ec400010035000044eb00e04f54000200320002
:100ed400d522a90001003700d522a8004f04be0086
:100ee4000080fa00000006001000fa00889fbe008f
:100ef400404f9800710798006022b800048fbe002c
:100f04006022b80024079800350798000002eb001f
:100f1400440798000002eb0054079800851620004f
:100f24007e029000048252005407980054408000ce
:100f3400050020000400be00a6fd07000002be005c
:100f440002002000433b24000400be0058fd0700bb
:100f54000002be000404be005e02900005002000f2
:100f64000400be009bfd07000002be000401be0099
:100f74000800be00d7fd07000002be002407980049
:100f84003507980054408000050020000400be008e
:100f940090fd07000004be004e4a90008482fb00ce
:100fa4004406200004aab9000402780005002000c9
:100fb4000400be0087fd07000002be002e01900061
:100fc400be0190000400be00dbfc07000002be006e
:100fd4000401be000800be00d7fc07000002be00ea
:100fe400048fbe004e4a90008482fb004406200019
:100ff40004aab90004027800440798004e02900045
:10100400050020000400be0072fd07000002be00bf
:1010140018c0b3002e019000be0190000400be0071
:1010240065fd070000027800e00f52000100340063
:101034000044eb00e04f5400320032004e4a90006e
:101044008482fb004406200004aab900040278004c
:10105400cfa2de000400be005bfd07000002be005c
:101064000401be002e009000be009000b2fc0700f8
:101074000002be00048fbe00244080000500200052
:101084000400be0053fd07000002be0018c0b300f8
:101094001e01be000400be0049fd070000027800e6
:1010a400e00f520001003d000044eb00e04f54000b
:1010b4001200320024408000050020000400be001d
:1010c40044fd07000002be0018c0b3002e019000ca
:1010d400be0190000400be0037fd07000002780046
:1010e400e00f5200010035000044eb00e04f5400d3
:1010f40002003200c982a8003c003700c982a9005e
:101104003a00370054408000050020000400be006f
:1011140030fd07000004be004e4a90008482fb00ac
:101124004406200004aab900040278000500200047
:101134000400be0027fd07000002be002e0190003f
:10114400be0190000400be007bfc07000002be004c
:101154000401be000800be0077fc07000002be00c8
:10116400048fbe0024408000050020000400be005f
:1011740018fd07000002be0018c0b3001e01be0027
:101184000400be000efd070000027800e00f5200cc
:1011940001003d000044eb00e04f540010003a0011
:1011a40024408000050020000400be0009fd070063
:1011b4000002be0018c0b3002e019000be019000d2
:1011c4000400be00fcfc070000027800e00f52009f
:1011d400010035000044eb00e04f540002003200ef
:1011e400c982a80001003700c982a9004f04be00cb
:1011f4000080fa00000006003400f800881f780020
:1012040008002000a80188004f0478000000fa00bc
:101214008560a9000080fa003400f900004006004f
:101224003600f800809fbe00829fbe00849fbe00ef
:10123400869fbe003400f80000002000a001880052
:101244000000fa008520a900941080000442780070
:1012540004407800c2fd07000080fa003400f90061
:101264004f03be004f02be004f01be004f00be0040
:101274003600f90000400600849fbe00861f7800f7
:101284003400f80004002000a40188000000fa00e3
:101294008460a900451680000420200004826200b6
:1012a40004f0a7000402ea000402e9004f22de0071
:1012b400044278000482fb00610262004922dd00de
:1012c40046168000f5df2f008502630005027200d8
:1012d400441688004540800074162000848f520014
:1012e40004003e00444080000402e80044408800ba
:1012f400020037000002eb00444088000080fa003e
:101304003400f9004f0378004f02be00004006008d
:10131400841f78003400f80004002000a401880031
:101324000000fa0084c0a900144080000402e80010
:1013340014408800244080000402e800244088000f
:101344000080fa003400f9004f02780000400600e3
:10135400849fbe00861f78003400f800040020003b
:10136400a40188000000fa008400a9003440800031
:10137400040242008402780014408000848f5200ea
:1013840014003100451680000440200004826200ed
:1013940004f0a7000402ea000402e9004f22de0080
:1013a400044278000482fb00610262004a22dd00ec
:1013b40046168000f5bf2f00850263000502720007
:1013c4004416880024408000544088000002eb004a
:1013d4002440880014408000344088000002eb0060
:1013e400144088000080fa003400f9004f037800ac
:1013f4004f02be00004006000400fa00000f78000f
:1014040011079800c742a900c942a800c722a90031
:10141400c922a800d322a900d522a8008200a800ce
:101424008c00a8008400a9000421a90024088000dd
:101434000440a0000450a00024088800f4e921001e
:10144400140888008460a9008c60a80005e1a80045
:101454001021a900840880000440a1000450a100c8
:1014640084088800840c20006408880084c0a900d3
:101474008cc0a80011e1a8000de2a8000d42a8004c
:101484000f42a800a4002000a41088008520a90011
:101494008d20a80025158000f40f2e0084826200a0
:1014a40004f0200005027200241588002515800030
:1014b40004fc2f0004826200f400b30024158800a9
:1014c400a342a800141580000420a0000430a0004a
:1014d4000440a0000450a0001415880004158000e6
:1014e4000450a0000460a0000470a000041588004b
:1014f400a042a800a022a8000082eb0044158800a6
:101504000082eb0054158800a1e2a8008560a900c0
:101514008d60a80021032000a0c0b300b4fd070023
:04152400fcff370091
:020000040000fa
:10152800000800000c00000000000000000000009f
:020000040000fa
:0200000401f009
:04000000f7bf000046
:020000040000fa
:0200000401f009
:04000400ff7f00007a
:020000040000fa
:0200000401f009
:04000800ffff0000f6
:020000040000fa
:0200000401f009
:04001400ffff0000ea
:020000040000fa
:0200000401f009
:04001800ffff0000e6
:00000001FF
