:020000040000fa
:080000000001040000000000f3
:020000040000fa
:04000800ec02000006
:020000040000fa
:04000c00ec02000002
:020000040000fa
:04001000ec020000fe
:020000040000fa
:04001400ec020000fa
:020000040000fa
:04001800ec020000f6
:020000040000fa
:04001c00ec020000f2
:020000040000fa
:04002000ec020000ee
:020000040000fa
:04002400ec020000ea
:020000040000fa
:040028006e0c00005a
:020000040000fa
:04002c00ec020000e2
:020000040000fa
:04003000ec020000de
:020000040000fa
:04003400dc0b0000e1
:020000040000fa
:04003800ec020000d6
:020000040000fa
:04003c00ec020000d2
:020000040000fa
:04004000140c00009c
:020000040000fa
:04004400340c000078
:020000040000fa
:04004800a80100000b
:020000040000fa
:04004c00b80a0000ee
:020000040000fa
:04005000ec020000be
:020000040000fa
:04005400880a000016
:020000040000fa
:04005800ec020000b6
:020000040000fa
:04005c00ec020000b2
:020000040000fa
:04006000ec020000ae
:020000040000fa
:04006400ec020000aa
:020000040000fa
:04006800ec020000a6
:020000040000fa
:04006c00ec020000a2
:020000040000fa
:04007000ec0200009e
:020000040000fa
:04007400ec0200009a
:020000040000fa
:04007800ec02000096
:020000040000fa
:04007c00ec02000092
:020000040000fa
:04008000ec0200008e
:020000040000fa
:04008400ec0200008a
:020000040000fa
:04008800ec02000086
:020000040000fa
:04008c00ec02000082
:020000040000fa
:04009000ec0200007e
:020000040000fa
:04009400ec0200007a
:020000040000fa
:04009800ec02000076
:020000040000fa
:04009c00ec02000072
:020000040000fa
:0400a000ec0200006e
:020000040000fa
:0400a400ec0200006a
:020000040000fa
:0400a800ec02000066
:020000040000fa
:0400ac00ec02000062
:020000040000fa
:0400b000ec0200005e
:020000040000fa
:0400b400ec0200005a
:020000040000fa
:0400b800ec02000056
:020000040000fa
:0400bc00ec02000052
:020000040000fa
:0400c000ec0200004e
:020000040000fa
:0400c400ec0200004a
:020000040000fa
:0400c800ec02000046
:020000040000fa
:0400cc00ec02000042
:020000040000fa
:0400d000ec0200003e
:020000040000fa
:0400d400ec0200003a
:020000040000fa
:0400d800ec02000036
:020000040000fa
:04010800ec02000005
:020000040000fa
:04010c00ec02000001
:020000040000fa
:04011000ec020000fd
:020000040000fa
:04011400ec020000f9
:020000040000fa
:04011800ec020000f5
:020000040000fa
:04011c00ec020000f1
:020000040000fa
:04012000ec020000ed
:020000040000fa
:04012400ec020000e9
:020000040000fa
:04012800ec020000e5
:020000040000fa
:04012c00ec020000e1
:020000040000fa
:04013000ec020000dd
:020000040000fa
:04013400ec020000d9
:020000040000fa
:04013800ec020000d5
:020000040000fa
:04013c00ec020000d1
:020000040000fa
:04014000ec020000cd
:020000040000fa
:04014400ec020000c9
:020000040000fa
:04014800ec020000c5
:020000040000fa
:04014c00ec020000c1
:020000040000fa
:04015000ec020000bd
:020000040000fa
:04015400ec020000b9
:020000040000fa
:04015800ec020000b5
:020000040000fa
:04015c00ec020000b1
:020000040000fa
:04016000ec020000ad
:020000040000fa
:04016400ec020000a9
:020000040000fa
:04016800ec020000a5
:020000040000fa
:04016c00ec020000a1
:020000040000fa
:04017000ec0200009d
:020000040000fa
:04017400ec02000099
:020000040000fa
:04017800ec02000095
:020000040000fa
:04017c00ec02000091
:020000040000fa
:04018000ec0200008d
:020000040000fa
:04018400ec02000089
:020000040000fa
:04018800ec02000085
:020000040000fa
:04018c00ec02000081
:020000040000fa
:04019000ec0200007d
:020000040000fa
:04019400ec02000079
:020000040000fa
:04019800ec02000075
:020000040000fa
:04019c00ec02000071
:020000040000fa
:0401a000ec0200006d
:020000040000fa
:0401a400ec02000069
:020000040000fa
:0401a800ec02000065
:020000040000fa
:0401ac00ec02000061
:020000040000fa
:0401b000ec0200005d
:020000040000fa
:0401b400ec02000059
:020000040000fa
:0401b800ec02000055
:020000040000fa
:0401bc00ec02000051
:020000040000fa
:0401c000ec0200004d
:020000040000fa
:0401c400ec02000049
:020000040000fa
:0401c800ec02000045
:020000040000fa
:0401cc00ec02000041
:020000040000fa
:0401d000ec0200003d
:020000040000fa
:0401d400ec02000039
:020000040000fa
:0401d800ec02000035
:020000040000fa
:100200004f8220000eff20000e0188000000000039
:10021000000020000000e000020032000001200089
:10022000200288000c00070000df200001002000f1
:1002300011000700000020000000e0000200320072
:100240000000020000000000a00c020000000000fe
:100250000040da000000fe004440a9000000200039
:100260000000e0000300320000002000a001880030
:100270004440a8000000060091018800800078003a
:100280000000eb0015003700e280400032a0b4000f
:100290009101ba00e280400032a0b4009102ba009d
:1002a000e280400032a0b4000002eb00472bde00e9
:1002b000f507b200602ce10004003a000059eb00a1
:1002c0008301e900fdff3e00040037006128e100e2
:1002d000010032000082eb000b00070011c3ba00de
:1002e0001101ba000604e00003003a000200e00039
:1002f000e5ff3a0000000600f607b200960188000c
:1003000082007800f5ff37003159ba008301e90017
:100310000c0032002159ba008301e90008003200c4
:100320000400e00003003a00e280400032a0b40084
:10033000f5ff370011d9ba008301e900faff3a004e
:100340008100e800e180400032a0b4000000060017
:100350003400f800881f780008002000a8018800f9
:100360004f0478000000fa008500a9000080fa0020
:100370003400f900004006000000fa0023c2a90082
:1003800023a2a9002362a9002342a9002322a900d5
:100390002302a90022e2a90022c2a90022a2a800e9
:1003a0008500a9008d00a80021e2a8000080fa00c5
:1003b000000006000000fa00d442a8000080fa0005
:1003c000000006000000fa00d442a9000080fa00f4
:1003d000000006000200fa00000f78009e0078007e
:1003e0002111880000000000001180006100600001
:1003f0000000e000fcff3200201180000040780087
:100400000080fa00000006000200fa00edff07007d
:1004100060002000efff0700004f7800e5ff0700b5
:100420000080fa00000006000200fa00e5ff070065
:1004300040002000e7ff0700004f7800ddff0700c5
:100440000080fa00000006000200fa00881f780011
:1004500000047800dbff070050002000ddff0700ec
:10046000004f78000000eb00daff0700004f780033
:10047000d0ff07000000eb00000c78001e4c780055
:10048000080078004f0478000080fa0000000600a1
:100490000a00fa0040479800320798004307980086
:1004a000d9ff0700c7ff070020002000c9ff070091
:1004b000004f78003e009000ce0090004008de0023
:1004c000004078000080fb00c2ff0700004f78006a
:1004d0003e009000ce0090004809dd004800de009c
:1004e00000007100c808de00004078000080fb00ba
:1004f000b8ff0700004f78003e00900000407800f1
:100500000080fb00b3ff0700004f78004e409000d2
:100510000080fb00afff0700004f7800a5ff070039
:10052000000000000e80e800c7ff07001e009000da
:10053000610060000000e000faff3a00baff070027
:100540000080fa00000006000600fa00100798007c
:10055000210798009bff0700300020009dff070047
:10056000004f78001e009000ae0090004008de00b2
:10057000004078000080fb0096ff0700004f7800e5
:100580001e009000ae0090004809dd004800de002b
:1005900000007100c808de00004078000080fb0009
:1005a0008cff0700004f78001e009000004078008c
:1005b0000080fb0087ff0700004f78000000eb0081
:1005c00084ff0700004f78007aff07001e40780084
:1005d0000080fa00000006000040da000000fe0083
:1005e00003f0a200889fbe008a9fbe008c1f780087
:1005f000ca000700d10033006450e1004f00320010
:100600006420e1005200320003826c0007003b00ce
:100610000905d0000306d000820f54000c065d00cf
:1006200002003900020032008901780003067800d8
:100630008582550004003d000003fd008103fd009c
:100640008502ea008b854200840f720002003b00a5
:1006500060001000e08018006011b8000005eb0099
:100660007a28e1000a00390006007800c75ddd0045
:10067000f707b200878075002d0037008281710076
:100680000a017800610560008180d1000080d300fc
:100690008502e900f9ff3b0006044000878448001a
:1006a00002003b0060041400e0841c000988a300e1
:1006b000070032008a81710082817100610164004b
:1006c0008904d1000884d3008b05e80017003700a7
:1006d0000978a30013003a000b00e0001300340077
:1006e0008b05e9000804440089844c000a44740026
:1006f0000978a3000d003a000b00e0000700340069
:100700008b05e9000804440089844c0001003a008c
:100710000b0020000978a300f7ff32000001eb0076
:1007200002003700828171000a017800550007003d
:100730000cf0a70001f0a000890037006420e10060
:1007400002003a00838f6c00890033000801be006c
:100750000200be0082003700889fbe008a9fbe0054
:100760008c1f78006d0007007400330003866c0056
:100770006450e1002e0032006420e10033003200ba
:100780006150e1002f0032006120e10031003200b1
:1007900085855500eb07b000090020000804200003
:1007a000050037000804440089844c000a00310029
:1007b0000603430087834b000001530081815b00e7
:1007c000f8ff33000203be000800a0000804440044
:1007d00089844c00f6ff3900c639dd0083017300bf
:1007e00001003200130020008904d1000884d300e6
:1007f0000998a300050032000800a7000300a0002c
:100800008904d1000884d3008b05e8008904d10055
:100810000884d3000001eb000281d2001900070018
:1008200001f0a1000cf0a70001f0a0004c0037007f
:100830006420e1004e0032000801be000200be004c
:10084000f7ff37006120e100490032006000b80086
:10085000f3ff37000000200001f82700f0ff370009
:100860001400200079003700f4ff2f0077003700d4
:100870004f89de00820178008f0037006011b800d8
:100880009d00370081002000618055000b003d0075
:100890000b00200061fe2f000100e1001d0034006c
:1008a00082817100610164008904d1000884d30051
:1008b0000000e800faff3a007100200061006400c7
:1008c000030070000200600009003200610444006f
:1008d000e0844c000988a500050032008b05e80083
:1008e0006808e10002003a008904d1000884d300be
:1008f000f20f20000258e10005003d00c75ddd0059
:10090000f907b20089807500080078000000060031
:100910000bf827008b007800000005000004be00e3
:10092000a40007000003be000405be000200be00d4
:10093000a0000700844f7500000006000200be0002
:100940006450e100050036006420e100020036003a
:100950000968a30001003a000800be000160a00081
:100960004f0678004f05be004f04be000000060091
:10097000f0ff2f00f1ff2700f9ff3700889fbe002e
:100980008a9fbe008c1f7800e4ff0700ebff330056
:1009900003866c006450e100240032006420e10012
:1009a000270032006150e100220032006120e100a6
:1009b000210032008b854200eb07b1000134b80002
:1009c000003ab8000804420089844a00013ab8009d
:1009d0000030b8008880400009014a00040033005c
:1009e0000000400081804800020149008b05e900b9
:1009f000c909dd00830170000100320013002000ee
:100a0000c814de004814dd004709de001200b20001
:100a1000c808de00088470009aff070001f0a100fa
:100a20000cf0a70001f0a000cdff37006120e1002d
:100a3000cfff32000801be000200be00f7ff370002
:100a40006150e100fcff3a00c9ff3700889fbe00fb
:100a50008a9fbe00841f7800b0ff07004f00780017
:100a600011003300f0ff2f00838f6c0006003b0065
:100a7000040565000a00a7000800370009f0a60079
:100a80001000200008003700820f5400838f5c00a4
:100a9000030039001000200001003e00000020008b
:100aa00009f0a7000000ea004f05be004f04be0099
:100ab0000000e00000000600881f780003047800b2
:100ac0000300e00007003d0060001000e080180017
:100ad00060011900e081190002003b0001f02d00c7
:100ae000030037000400070008f0a70001f0a00091
:100af0004f04780000000600889fbe008a9fbe0059
:100b0000008270000402710004827100260032002d
:100b10000004be000200be006011b8006b09200096
:100b2000950220000182cf000a0039000541b10082
:100b30000082cf00070039000541b1000982cf00d3
:100b4000040039000541b1000882cf0001003900de
:100b50000541b10005425200120032000a003b007c
:100b600082817100610164008100d1000080d300a6
:100b70008984d3000884d3008b05e8000442e80090
:100b8000f7ff3a00070037000804440089844c004e
:100b900000004800818048008b05e9000442e9001c
:100ba000f9ff3a0037ff07004f05be004f04be00b3
:100bb00000000600c70ade00f107b200f50fb20020
:100bc00008003200e1cf4200020032000170a000b4
:100bd00024000500810f70000100320004080500a8
:100be00044000500810f700002003a001400050067
:100bf0008502e9000000400081c04800fcff3b0086
:080c00000170a00024000500b2
:020000040000fa
:100c08000200fa001cc8bf006011b8001efe0700f1
:100c1800f04080004800de00004f780012002000fd
:100c2800030020001e40780017fe0700f0408000f7
:100c380000407800220020000300200012fe070078
:100c480020c8bf0032002000030020000efe07006d
:100c5800104180004800de00004f7800420020006c
:100c6800030020001e40780007fe070010418000a6
:100c780000407800520020000300200002fe070018
:100c8800504080004800de00004f780062002000dd
:100c9800030020001e407800fbfd07005040800044
:100ca800004078007200200003002000f6fd0700d5
:100cb8000080fa00000006000000fa006000b8009a
:100cc8001ffe07001ce8b7001000200001002000ec
:100cd8001bfe07000080fb00f0408800f040800009
:100ce8004800dd00f04088002000200001002000be
:100cf80013fe07008080fb00f040800001007000b8
:100d0800f040880030002000010020000cfe0700a1
:100d180020e8b700400020000100200008fe07007e
:100d28000080fb0010418800104180004800dd0071
:100d380010418800500020000100200000fe07003c
:100d48008080fb0010418000010070001041880085
:100d58006000200001002000f9fd07000080fb0072
:100d680050408800504080004800dd005040880016
:100d78007000200001002000f1fd07008080fb00ca
:100d88005040800001007000504088000080fa0048
:100d9800000006000000fa001cc8bf002f0307006f
:100da800f04080003903070020c8bf002b0307006c
:100db80010418000350307005040800033030700ce
:100dc8006040800031030700704080002f03070057
:100dd800804080002d030700904080002b0307000f
:100de800a040800029030700b040800027030700c7
:100df800c0408000250307000080fa0000000600bc
:100e08000c00fa00889fbe00400798005107980020
:100e1800304080008000eb0096fe070002002000b2
:100e2800433b24004afe07000004be004e00900029
:100e38008000eb008ffe07000001be000800be0026
:100e4800ccfe0700008fbe00304080008000eb0021
:100e580088fe070002002000433b24003cfe0700f8
:100e68000004be005e0090008000eb0081fe0700d9
:100e78000001be000800be00befe07002007980063
:100e88003107980018c0b3002e019000be019000f1
:100e98001e00be0070fe07000000e00001003400e4
:100ea8000044eb000804e0001b00320020408000f2
:100eb8008000eb006ffe070018c0b3001e01be00e3
:100ec80067fe07000000e00001003d000044eb0061
:100ed8000804e0000e003200204080008000eb0093
:100ee80064fe070018c0b3002e019000be019000f8
:100ef80059fe07000000e000010035000044eb0047
:100f08000804e00002003200d522a9001c003700c6
:100f1800d522a8001a003700204080008000eb008e
:100f280054fe070018c0b3001e01be004cfe0700a7
:100f38000000e00001003d000044eb000804e00070
:100f48000c003a00204080008000eb0049fe0700ba
:100f580018c0b3002e019000be0190003efe0700ad
:100f68000000e000010035000044eb000804e00048
:100f780002003200d522a90001003700d522a800be
:100f88004f04be000080fa00000006001000fa00be
:100f9800889fbe00404f9800710798006000b80015
:100fa80010079800210798006000b80030079800e3
:100fb800410798000000eb00500798000000eb0084
:100fc800000f7800514080007e0090008080400033
:100fd80080162000808f50000600360051408000a7
:100fe8007e0090000080400081e92f00010f400042
:100ff8000300370050408000fe009000008f400042
:10100800304080008000eb001afe0700020020003c
:10101800433b2400cefd07000004be001e007800fc
:101028008000eb0013fe07000001be000800be00b0
:1010380050fe0700300798004107980030408000b4
:101048008000eb000bfe07000004be004e48900035
:101058008080fb00400620000088b900000078006e
:101068008000eb0003fe07003e019000ce019000d7
:1010780059fd07000001be000800be0056fd07002c
:1010880010079800210798004e4890008080fb00c8
:10109800400620000088b90000007800500798003a
:1010a8005e0090008000eb00f2fd070018c0b3005e
:1010b8003e019000ce019000e7fd07000000e0002f
:1010c800010034000044eb000804e000290032006d
:1010d8004e4890008080fb00400620000088b90040
:1010e800000078008000eb00e2fd07000001be0070
:1010f8003e009000ce00900037fd070010079800d2
:1011080021079800204080008000eb00d9fd0700ef
:1011180018c0b3001e019000ae019000d0fd07007a
:101128000000e00001003d000044eb000804e0007e
:101138000e003200204080008000eb00cdfd07004b
:1011480018c0b3003e019000ce019000c2fd070018
:101158000000e000010035000044eb000804e00056
:1011680002003200d522a90030003700d522a8009d
:101178002e003700304080008000eb00bdfd0700e6
:101188000004be004e4890008080fb00400620000e
:101198000088b900000078008000eb00b5fd07006a
:1011a8003e019000ce0190000bfd07000001be003b
:1011b8000800be0008fd07001007980021079800e6
:1011c800204080008000eb00aafd070018c0b30093
:1011d8001e019000ae019000a1fd07000000e00094
:1011e80001003d000044eb000804e0000c003a0058
:1011f800204080008000eb009efd070018c0b3006f
:101208003e019000ce01900093fd07000000e00031
:10121800010035000044eb000804e0000200320041
:10122800d522a90001003700d522a8004f04be002e
:101238000080fa00000006001000fa00889fbe0037
:10124800404f9800710798006000b8001007980098
:10125800210798006000b8003007980041079800ff
:101268000000eb00500798000000eb00000f78002a
:101278007e0090000000e000050035008116200087
:101288007e00900000805000000f780004003700b6
:101298007e00900000f0a7000000ea00000f780030
:1012a800504080009e00400080162000808f500033
:1012b80005003600504080001e00400081e92f00e4
:1012c800010f400002003700504080001e0f400010
:1012d800304080008000eb0066fd0700020020001f
:1012e800433b24001afd07000004be001e007800de
:1012f8008000eb005ffd07000001be000800be0093
:101308009cfd070030079800410798003040800096
:101318008000eb0057fd07000004be004e48900017
:101328008080fb00400620000088b900000078009b
:101338008000eb004ffd07003e019000ce019000b9
:10134800a5fc07000001be000800be00a2fc0700c3
:1013580010079800210798004e4890008080fb00f5
:10136800400620000088b900000078005007980067
:101378005e0090008000eb003efd070018c0b3003f
:101388003e019000ce01900033fd07000000e00010
:10139800010034000044eb000804e000290032009a
:1013a8004e4890008080fb00400620000088b9006d
:1013b80000007800cf80de002bfd07000001be0092
:1013c8003e009000ce00900083fc070010079800b4
:1013d80021079800204080008000eb0025fd0700d1
:1013e80018c0b3001e019000ae0190001cfd07005c
:1013f8000000e00001003d000044eb000804e000ac
:101408000e003200204080008000eb0019fd07002c
:1014180018c0b3003e019000ce0190000efd0700f9
:101428000000e000010035000044eb000804e00083
:1014380002003200d462a80030003700d462a9004c
:101448002e003700304080008000eb0009fd0700c7
:101458000004be004e4890008080fb00400620003b
:101468000088b900000078008000eb0001fd07004b
:101478003e019000ce01900057fc07000001be001d
:101488000800be0054fc07001007980021079800c8
:10149800204080008000eb00f6fc070018c0b30075
:1014a8001e019000ae019000edfc07000000e00076
:1014b80001003d000044eb000804e0000c003a0085
:1014c800204080008000eb00eafc070018c0b30051
:1014d8003e019000ce019000dffc07000000e00014
:1014e800010035000044eb000804e000020032006f
:1014f800d462a80001003700d462a9004f04be00de
:101508000080fa0000000600801f78003400f80010
:1015180000002000a00188000000fa008560a900f2
:10152800001480006040880010148000704088001b
:10153800301480008040880040148000904088006b
:1015480050148000a040880080148000b0408800bb
:10155800c0148000c04088000080fa003400f90000
:101568004f007800004006003600f800809fbe005b
:10157800829fbe00849fbe00869fbe003400f80094
:1015880000002000a00188000000fa008520a900c2
:101598001ac8bf000004e00019003a00901080004b
:1015a80051042000810f50000c003200510520002a
:1015b800810f50000500320041042000810f5000c7
:1015c80072003a00f3fd07007100370010c0b30045
:1015d8001ae8b7001b68ef006d00370088fd0700a8
:1015e800f0c4b3001d010700b0c4b3001b0107001d
:1015f80010c2b300190107000000000064003700a2
:101608001bc8bf000080fb00e30f50002a00320017
:10161800e30f500007003c00e10f500015003200b6
:10162800e10f50001c003c000000e0000a003200fe
:101638004b003700e50f50002f003200e50f500037
:1016480024003500e60f500034003200e70f500048
:101658003b003200420037009010800000407800c4
:101668001ce8b7001bc8bf000040e8001be8b70033
:101678003b00370090108000f0408800f040800068
:101688004800dd00f04088001bc8bf000040e800ab
:101698001be8b70032003700f1408000901080004e
:1016a80001007000f04088001bc8bf000040e8003f
:1016b8001be8b7002a00370090108000004078002f
:1016c80020e8b7001bc8bf000040e8001be8b700cf
:1016d80023003700901080001041880010418000de
:1016e8004800dd00104188001bc8bf000040e8002a
:1016f8001be8b7001a00370010418000800078000e
:101708009010800001007000104188001bc8bf00c5
:101718000040e8001be8b700110037009010800077
:1017280050408800504080004800dd00504088004c
:101738001bc8bf000040e8001be8b70008003700de
:1017480051408000901080000100700050408800d7
:101758001bc8bf000040e8001be8b70000000000fd
:101768001bc8bf00e84f500009003a001a68ef0094
:10177800f0c4b300b9000700b0c4b300b700070055
:1017880010c2b300b50007000100370000000000d8
:101798000080fa003400f9004f03be004f02be007b
:1017a8004f01be004f00be003600f90000400600a1
:1017b800809fbe00821f78003400f80000002000df
:1017c800a00188000000fa008460a900411680008a
:1017d800002020000080600000f0a7000000ea0060
:1017e8000000e9004f00de00004078000080fb00a8
:1017f800610060004900dd0042168000f1df2f0023
:101808008100610001007000401688000080fa0025
:101818003400f9004f0178004f00be000040060078
:10182800801f78003400f80000002000a001880024
:101838000000fa0084c0a900004080000000e80011
:1018480000408800204080000000e8002040880018
:101858000080fa003400f9004f00780000400600cc
:10186800809fbe00821f78003400f800000020002e
:10187800a00188000000fa0084e0a9004116800059
:10188800004020000080600000f0a7000000ea008f
:101898000000e9004f00de00004078000080fb00f7
:1018a800610060004a00dd0042168000f1bf2f0091
:1018b8008100610001007000401688000868ef0090
:1018c8000080fa003400f9004f0178004f00be0094
:1018d80000400600809fbe003400f8000000200091
:1018e800a00188000000fa008400a90010408000d0
:1018f800000040008000780000408000808f500089
:101908000300310020408000304088000428ef00a8
:1019180000408000104088000028ef0010c0b3008d
:1019280008e8b7000a21ef000080fa003400f90047
:101938004f00be00004006000400fa00000f7800c7
:101948001107980095000700730007003900070089
:1019580087fa07008200a8008c00a8008400a9006c
:1019680021158000f00f2e008080600000f020001c
:1019780001007000201588002115800000fc2f0050
:1019880000806000f000b30020158800a342a80082
:10199800101580000020a0000030a0000040a0002a
:1019a8000050a00010158800001580000050a0000d
:1019b8000060a0000070a00000158800a042a800e8
:1019c800a022a8000080eb0050158800a1e2a80022
:1019d8008560a9008d60a800b7fc070008c8bf0093
:1019e8000004e000090032000040eb003c00070062
:1019f800f14080001cc8bf0064fd07001141800051
:101a080020c8bf000cfe0700f4ff370010c0b30069
:101a180033000700d522a800d462a8000028ef00f0
:101a28000228ef000428ef000628ef000868ef00fe
:101a3800eaff37000000fa000de2a8000d42a800f6
:101a48000f42a800a0002000a01088008520a9004f
:101a58008d20a8000080fa00000006000200fa00ad
:101a6800004f780000000000711080000010200076
:101a7800008060000000e000fbff32001e80fb00d9
:101a8800801088000080fa00000006000200fa00ba
:101a9800000f780000000000711080000010200086
:101aa800008060000000e000fbff32001e007800ac
:101ab8004800de00801088000000000071108000df
:101ac80000102000008060000000e000fbff3200f2
:101ad8009e007800811088000080fa00000006004f
:101ae8000200fa00004f78009e40780061c0600054
:101af8000080fb00610060004900dd006204800096
:101b0800f1df2f008100610001007000600488008f
:101b18000080fa00000006000000fa000421a90075
:101b2800200880000040a0000050a0002008880085
:101b3800f0e92100100888008460a9008c60a800e2
:101b480005e1a8001021a900800880000040a1003c
:101b58000050a10080088800800c200060088800e0
:101b680084c0a9008cc0a80011e1a8001221a90016
:101b7800900880000040a0000050a0009008880055
:101b8800f0e921007008880084e0a9008ce0a80032
:101b980013e1a8000080fa00000006000000fa0027
:101ba800c742a900c722a900d242a900d262a9004f
:101bb800d322a90040ec2e0040158800c942a80095
:101bc800c922a800d442a800d522a800d462a8003f
:081bd8000080fa000000060085
:020000040000fa
:101be000000800001c000000000000001c080000ad
:101bf00008000000020000000100020000030000d5
:081c000004000000040e800046
:020000040000fa
:041c080000000000d8
:020000040000fa
:0200000401f009
:04000000f7bf000046
:020000040000fa
:0200000401f009
:04000400ff7f00007a
:020000040000fa
:0200000401f009
:04000800ffff0000f6
:020000040000fa
:0200000401f009
:04001400ffff0000ea
:020000040000fa
:0200000401f009
:04001800ffff0000e6
:00000001FF
