:020000040000fa
:080000000001040000000000f3
:020000040000fa
:04000800a80100004b
:020000040000fa
:04000c00a801000047
:020000040000fa
:04001000a801000043
:020000040000fa
:04001400a80100003f
:020000040000fa
:04001800a80100003b
:020000040000fa
:04001c00a801000037
:020000040000fa
:04002000a801000033
:020000040000fa
:04002400a80100002f
:020000040000fa
:040028001a090000b1
:020000040000fa
:04002c00a801000027
:020000040000fa
:04003000a801000023
:020000040000fa
:040034008808000038
:020000040000fa
:04003800a80100001b
:020000040000fa
:04003c00a801000017
:020000040000fa
:04004000c0080000f4
:020000040000fa
:04004400e0080000d0
:020000040000fa
:04004800a80100000b
:020000040000fa
:04004c005408000054
:020000040000fa
:04005000a801000003
:020000040000fa
:04005400240800007c
:020000040000fa
:04005800a8010000fb
:020000040000fa
:04005c00a8010000f7
:020000040000fa
:04006000a8010000f3
:020000040000fa
:04006400a8010000ef
:020000040000fa
:04006800a8010000eb
:020000040000fa
:04006c00a8010000e7
:020000040000fa
:04007000a8010000e3
:020000040000fa
:04007400a8010000df
:020000040000fa
:04007800a8010000db
:020000040000fa
:04007c00a8010000d7
:020000040000fa
:04008000a8010000d3
:020000040000fa
:04008400a8010000cf
:020000040000fa
:04008800a8010000cb
:020000040000fa
:04008c00a8010000c7
:020000040000fa
:04009000a8010000c3
:020000040000fa
:04009400a8010000bf
:020000040000fa
:04009800a8010000bb
:020000040000fa
:04009c00a8010000b7
:020000040000fa
:0400a000a8010000b3
:020000040000fa
:0400a400a8010000af
:020000040000fa
:0400a800a8010000ab
:020000040000fa
:0400ac00a8010000a7
:020000040000fa
:0400b000a8010000a3
:020000040000fa
:0400b400a80100009f
:020000040000fa
:0400b800a80100009b
:020000040000fa
:0400bc00a801000097
:020000040000fa
:0400c000a801000093
:020000040000fa
:0400c400a80100008f
:020000040000fa
:0400c800a80100008b
:020000040000fa
:0400cc00a801000087
:020000040000fa
:0400d000a801000083
:020000040000fa
:0400d400a80100007f
:020000040000fa
:0400d800a80100007b
:020000040000fa
:04010800a80100004a
:020000040000fa
:04010c00a801000046
:020000040000fa
:04011000a801000042
:020000040000fa
:04011400a80100003e
:020000040000fa
:04011800a80100003a
:020000040000fa
:04011c00a801000036
:020000040000fa
:04012000a801000032
:020000040000fa
:04012400a80100002e
:020000040000fa
:04012800a80100002a
:020000040000fa
:04012c00a801000026
:020000040000fa
:04013000a801000022
:020000040000fa
:04013400a80100001e
:020000040000fa
:04013800a80100001a
:020000040000fa
:04013c00a801000016
:020000040000fa
:04014000a801000012
:020000040000fa
:04014400a80100000e
:020000040000fa
:04014800a80100000a
:020000040000fa
:04014c00a801000006
:020000040000fa
:04015000a801000002
:020000040000fa
:04015400a8010000fe
:020000040000fa
:04015800a8010000fa
:020000040000fa
:04015c00a8010000f6
:020000040000fa
:04016000a8010000f2
:020000040000fa
:04016400a8010000ee
:020000040000fa
:04016800a8010000ea
:020000040000fa
:04016c00a8010000e6
:020000040000fa
:04017000a8010000e2
:020000040000fa
:04017400a8010000de
:020000040000fa
:04017800a8010000da
:020000040000fa
:04017c00a8010000d6
:020000040000fa
:04018000a8010000d2
:020000040000fa
:04018400a8010000ce
:020000040000fa
:04018800a8010000ca
:020000040000fa
:04018c00a8010000c6
:020000040000fa
:04019000a8010000c2
:020000040000fa
:04019400a8010000be
:020000040000fa
:04019800a8010000ba
:020000040000fa
:04019c00a8010000b6
:020000040000fa
:0401a000a8010000b2
:020000040000fa
:0401a400a8010000ae
:020000040000fa
:0401a800a8010000aa
:020000040000fa
:0401ac00a8010000a6
:020000040000fa
:0401b000a8010000a2
:020000040000fa
:0401b400a80100009e
:020000040000fa
:0401b800a80100009a
:020000040000fa
:0401bc00a801000096
:020000040000fa
:0401c000a801000092
:020000040000fa
:0401c400a80100008e
:020000040000fa
:0401c800a80100008a
:020000040000fa
:0401cc00a801000086
:020000040000fa
:0401d000a801000082
:020000040000fa
:0401d400a80100007e
:020000040000fa
:0401d800a80100007a
:020000040000fa
:100200000f8220000eff20000e0188000000000079
:10021000000020000000e000020032000001200089
:10022000200288000c00070000a020000100200030
:1002300011000700000020000000e0000200320072
:1002400000000200000000004c0902000000000055
:100250000040da000000fe004440a9000000200039
:100260000000e0000300320000002000a001880030
:100270004440a8000000060091018800800078003a
:100280000000eb0015003700e280400032a0b4000f
:100290009101ba00e280400032a0b4009102ba009d
:1002a000e280400032a0b4000002eb00472bde00e9
:1002b000f507b200602ce10004003a000059eb00a1
:1002c0008301e900fdff3e00040037006128e100e2
:1002d000010032000082eb000b00070011c3ba00de
:1002e0001101ba000604e00003003a000200e00039
:1002f000e5ff3a0000000600f607b200960188000c
:1003000082007800f5ff37003159ba008301e90017
:100310000c0032002159ba008301e90008003200c4
:100320000400e00003003a00e280400032a0b40084
:10033000f5ff370011d9ba008301e900faff3a004e
:100340008100e800e180400032a0b4000000060017
:100350000040da000000fe0003f0a200889fbe000b
:100360008a9fbe008c1f7800ca000700d1003300ae
:100370006450e1004f0032006420e100520032007e
:1003800003826c0007003b000905d0000306d00083
:10039000820f54000c065d0002003900020032009a
:1003a00089017800030678008582550004003d002d
:1003b0000003fd008103fd008502ea008b854200f9
:1003c000840f720002003b0060001000e080180003
:1003d0006011b8000005eb007a28e1000a0039003e
:1003e00006007800c75ddd00f707b2008780750062
:1003f0002d003700828171000a01780061056000dc
:100400008180d1000080d3008502e900f9ff3b0024
:10041000060440008784480002003b00600414008a
:10042000e0841c000988a300070032008a81710063
:1004300082817100610164008904d1000884d300c5
:100440008b05e800170037000978a30013003a0075
:100450000b00e000130034008b05e90008044400a1
:1004600089844c000a4474000978a3000d003a0006
:100470000b00e000070034008b05e900080444008d
:1004800089844c0001003a000b0020000978a30089
:10049000f7ff32000001eb0002003700828171009b
:1004a0000a017800550007000cf0a70001f0a00039
:1004b000890037006420e10002003a00838f6c005d
:1004c000890033000801be000200be008200370030
:1004d000889fbe008a9fbe008c1f78006d000700b9
:1004e0007400330003866c006450e1002e0032007b
:1004f0006420e100330032006150e1002f0032003f
:100500006120e1003100320085855500eb07b00025
:1005100009002000080420000500370008044400fa
:1005200089844c000a0031000603430087834b0096
:100530000001530081815b00f8ff33000203be001d
:100540000800a0000804440089844c00f6ff39002c
:10055000c639dd0083017300010032001300200062
:100560008904d1000884d3000998a3000500320053
:100570000800a7000300a0008904d1000884d3006c
:100580008b05e8008904d1000884d3000001eb004a
:100590000281d2001900070001f0a1000cf0a700b1
:1005a00001f0a0004c0037006420e1004e00320052
:1005b0000801be000200be00f7ff37006120e10025
:1005c000490032006000b800f3ff3700000020004f
:1005d00001f82700f0ff37001400200079003700f1
:1005e000f4ff2f00770037004f89de00820178008a
:1005f0008f0037006011b8009d0037008100200097
:10060000618055000b003d000b00200061fe2f00b3
:100610000100e1001d00340082817100610164006d
:100620008904d1000884d3000000e800faff3a00f2
:10063000710020006100640003007000020060008f
:100640000900320061044400e0844c000988a500e0
:10065000050032008b05e8006808e10002003a005e
:100660008904d1000884d300f20f20000258e10071
:1006700005003d00c75ddd00f907b2008980750007
:1006800008007800000006000bf827008b007800b7
:10069000000005000004be00a40007000003be0027
:1006a0000405be000200be00a0000700844f7500d4
:1006b000000006000200be006450e10005003600a4
:1006c0006420e100020036000968a30001003a003e
:1006d0000800be000160a0004f0678004f05be0074
:1006e0004f04be0000000600f0ff2f00f1ff2700be
:1006f000f9ff3700889fbe008a9fbe008c1f7800dc
:10070000e4ff0700ebff330003866c006450e10058
:10071000240032006420e100270032006150e10033
:10072000220032006120e100210032008b8542006e
:10073000eb07b1000134b800003ab80008044200e9
:1007400089844a00013ab8000030b800888040002f
:1007500009014a0004003300000040008180480085
:10076000020149008b05e900c909dd008301700021
:100770000100320013002000c814de004814dd0020
:100780004709de001200b200c808de0008847000cd
:100790009aff070001f0a1000cf0a70001f0a000f3
:1007a000cdff37006120e100cfff32000801be001d
:1007b0000200be00f7ff37006150e100fcff3a0085
:1007c000c9ff3700889fbe008a9fbe00841f780043
:1007d000b0ff07004f00780011003300f0ff2f003a
:1007e000838f6c0006003b00040565000a00a7002b
:1007f0000800370009f0a6001000200008003700ac
:10080000820f5400838f5c00030039001000200029
:1008100001003e000000200009f0a7000000ea00ef
:100820004f05be004f04be000000e00000000600bf
:10083000881f7800030478000300e00007003d00f3
:1008400060001000e080180060011900e0811900cc
:1008500002003b0001f02d000300370004000700f8
:1008600008f0a70001f0a0004f0478000000060087
:10087000889fbe008a9fbe00008270000402710043
:1008800004827100260032000004be000200be0097
:100890006011b8006b092000950220000182cf0092
:1008a0000a0039000541b1000082cf00070039007d
:1008b0000541b1000982cf00040039000541b100b3
:1008c0000882cf00010039000541b1000542520005
:1008d000120032000a003b00828171006101640055
:1008e0008100d1000080d3008984d3000884d30024
:1008f0008b05e8000442e800f7ff3a0007003700e4
:100900000804440089844c000000480081804800ad
:100910008b05e9000442e900f9ff3a0037ff0700c0
:100920004f05be004f04be0000000600c70ade00ef
:10093000f107b200f50fb20008003200e1cf42002b
:10094000020032000170a00024000500810f700039
:10095000010032000408050044000500810f70000a
:1009600002003a00140005008502e9000000400082
:1009700081c04800fcff3b000170a000240005007e
:020000040000fa
:100980000200fa00004f78000000000071108000a3
:1009900000102000008060000000e000fbff32003b
:1009a0001e80fb00801088000080fa000000060016
:1009b0000200fa00000f78000000000071108000b3
:1009c00000102000008060000000e000fbff32000b
:1009d0001e0078004800de00801088000000000043
:1009e0007110800000102000008060000000e00016
:1009f000fbff32009e007800811088000080fa0022
:100a0000000006000c00fa00889fbe004007980016
:100a100051079800304080008000eb00f5fe070091
:100a200002002000433b2400a9fe07000004be0092
:100a30004e0090008000eb00eefe07000001be00bb
:100a40000800be002bff0700008fbe003040800072
:100a50008000eb00e7fe070002002000433b24007b
:100a60009bfe07000004be005e0090008000eb00cb
:100a7000e0fe07000001be000800be001dff0700e9
:100a8000200798003107980018c0b3002e0190008d
:100a9000be0190001e00be00cffe07000000e00077
:100aa000010034000044eb000804e0001b003200a9
:100ab000204080008000eb00cefe070018c0b3008d
:100ac0001e01be00c6fe07000000e00001003d0060
:100ad0000044eb000804e0000e00320020408000db
:100ae0008000eb00c3fe070018c0b3002e01900089
:100af000be019000b8fe07000000e00001003500d4
:100b00000044eb000804e00002003200d522a900f6
:100b10001c003700d522a8001a00370020408000b2
:100b20008000eb00b3fe070018c0b3001e01be003a
:100b3000abfe07000000e00001003d000044eb00b8
:100b40000804e0000c003a00204080008000eb0028
:100b5000a8fe070018c0b3002e019000be0190004f
:100b60009dfe07000000e000010035000044eb009e
:100b70000804e00002003200d522a900010037007d
:100b8000d522a8004f04be000080fa000000060035
:100b90000e00fa00889fbe00204f98006107980061
:100ba0006000b800008fbe006000b8002007980009
:100bb000310798000000eb004007980030408000ab
:100bc0008000eb008bfe070002002000433b240066
:100bd0003ffe07000004be006e0090008000eb00a6
:100be00084fe07000001be000800be00c1fe070031
:100bf0002007980031079800304080008000eb000b
:100c00007cfe07000004be002e4890008080fb00a0
:100c1000400620000088b900000078008000eb004a
:100c200074fe07002e019000be019000cafd07006f
:100c30000001be000800be00c7fd0700008fbe0017
:100c40002e4890008080fb00400620000088b900fc
:100c500000007800400798004e0090008000eb00f4
:100c600064fe070018c0b3002e019000be01900082
:100c700059fe07000000e000010034000044eb00d2
:100c80000804e000270032002e4890008080fb001e
:100c9000400620000088b900000078008000eb00ca
:100ca00054fe07000001be002e009000be00900020
:100cb000a9fd0700008fbe00204080008000eb00ef
:100cc0004cfe070018c0b3001e01be0044fe070022
:100cd0000000e00001003d000044eb000804e000db
:100ce0000e003200204080008000eb0041fe070033
:100cf00018c0b3002e019000be01900036fe070020
:100d00000000e000010035000044eb000804e000b2
:100d100002003200d522a9002e003700d522a800fb
:100d20002c003700304080008000eb0031fe0700cf
:100d30000004be002e4890008080fb00400620008a
:100d40000088b900000078008000eb0029fe070051
:100d50002e019000be0190007ffd07000001be0043
:100d60000800be007cfd0700008fbe002040800010
:100d70008000eb001ffe070018c0b3001e01be007c
:100d800017fe07000000e00001003d000044eb00fa
:100d90000804e0000c003a00204080008000eb00d6
:100da00014fe070018c0b3002e019000be01900091
:100db00009fe07000000e000010035000044eb00e0
:100dc0000804e00002003200d522a900010037002b
:100dd000d522a8004f04be000080fa0000000600e3
:100de0001000fa00889fbe00404f980071079800dd
:100df0006000b800008fbe006000b80020079800b7
:100e0000310798000000eb00400798000000eb005d
:100e100050079800811620007e009000008050004e
:100e200050079800304080008000eb00f1fd070083
:100e300002002000433b2400a5fd07000004be0083
:100e40005e0090008000eb00eafd07000001be009c
:100e50000800be0027fe0700200798003107980011
:100e6000304080008000eb00e2fd07000004be007f
:100e70004e4890008080fb00400620000088b900aa
:100e8000000078008000eb00dafd07002e019000e2
:100e9000be01900030fd07000001be000800be004a
:100ea0002dfd0700008fbe004e4890008080fb00a3
:100eb000400620000088b900000078004007980034
:100ec0004e0090008000eb00cafd070018c0b30080
:100ed0002e019000be019000bffd07000000e00061
:100ee000010034000044eb000804e0002700320059
:100ef0004e4890008080fb00400620000088b9002a
:100f000000007800cf80de00b7fd07000001be00c2
:100f10002e009000be0090000ffd0700008fbe0065
:100f2000204080008000eb00b2fd070018c0b30035
:100f30001e01be00aafd07000000e00001003d0008
:100f40000044eb000804e0000e0032002040800066
:100f50008000eb00a7fd070018c0b3002e01900031
:100f6000be0190009cfd07000000e000010035007c
:100f70000044eb000804e00002003200c982a8002f
:100f80002e003700c982a9002c00370030408000b5
:100f90008000eb0097fd07000004be004e48900063
:100fa0008080fb00400620000088b9000000780027
:100fb0008000eb008ffd07002e019000be01900025
:100fc000e5fc07000001be000800be00e2fc0700cf
:100fd000008fbe00204080008000eb0085fd0700f0
:100fe00018c0b3001e01be007dfd07000000e00038
:100ff00001003d000044eb000804e0000c003a0052
:10100000204080008000eb007afd070018c0b3008c
:101010002e019000be0190006ffd07000000e0006f
:10102000010035000044eb000804e000020032003b
:10103000c982a80001003700c982a9004f04be0080
:101040000080fa0000000600801f78003400f800dd
:1010500000002000a00188000000fa008560a900bf
:10106000001480009040880010148000a040880088
:1010700030148000b040880040148000c0408800d8
:1010800050148000d040880080148000e040880028
:10109000c0148000f04088000080fa003400f9009d
:1010a0004f007800004006003600f800809fbe0028
:1010b000829fbe00849fbe00869fbe003400f80061
:1010c00000002000a00188000000fa008520a9008f
:1010d0009110800040042000808f500003003a00ef
:1010e0003040800032fe07000100370000000000a1
:1010f0000080fa003400f9004f03be004f02be002a
:101100004f01be004f00be003600f900004006004f
:10111000809fbe00821f78003400f800000020008d
:10112000a00188000000fa008460a9004116800038
:10113000002020000080600000f0a7000000ea000e
:101140000000e9004f00de00004078000080fb0056
:10115000610060004900dd0042168000f1df2f00d1
:101160008100610001007000401688000080fa00d4
:101170003400f9004f0178004f00be000040060027
:10118000801f78003400f80000002000a0018800d3
:101190000000fa0084c0a900004080000000e800c0
:1011a00000408800204080000000e80020408800c7
:1011b0000080fa003400f9004f007800004006007b
:1011c000809fbe00821f78003400f80000002000dd
:1011d000a00188000000fa0084e0a9004116800008
:1011e000004020000080600000f0a7000000ea003e
:1011f0000000e9004f00de00004078000080fb00a6
:10120000610060004a00dd0042168000f1bf2f003f
:101210008100610001007000401688001068ef0036
:101220000080fa003400f9004f0178004f00be0042
:1012300000400600809fbe003400f800000020003f
:10124000a00188000000fa008400a900104080007e
:10125000000040008000780000408000808f500037
:101260000300310020408000304088000428ef0057
:1012700000408000104088000028ef0010c0b3003c
:1012800010e8b7000a21ef000080fa003400f900ee
:101290004f00be00004006000400fa00000f780076
:1012a00011079800c742a900c942a800c722a90097
:1012b000c922a800d322a900d522a8008200a80034
:1012c0008c00a8008400a9000421a9002008800047
:1012d0000040a0000050a00020088800f0e9210094
:1012e000100888008460a9008c60a80005e1a800af
:1012f0001021a900800880000040a1000050a1003a
:1013000080088800800c20006008880084c0a90044
:101310008cc0a80011e1a8001221a900900880004b
:101320000040a0000050a00090088800f0e92100d3
:101330007008880084e0a9008ce0a80013e1a800f0
:101340000de2a8000d42a8000f42a800a000200056
:10135000a01088008520a9008d20a80021158000fc
:10136000f00f2e008080600000f02000010070006f
:10137000201588002115800000fc2f0000806000ef
:10138000f000b30020158800a342a80010158000cb
:101390000020a0000030a0000040a0000050a000ed
:1013a00010158800001580000050a0000060a0000b
:1013b0000070a00000158800a042a800a022a8008c
:1013c0000080eb00401588000080eb00501588007d
:1013d000a1e2a8008560a9008d60a80010c8bf0028
:1013e0000004e0000400320021032000a0c0b3008c
:1013f000e7fd0700f9ff3700d522a800f7ff370007
:020000040000fa
:10140000000800002000000000000000080a800022
:020000040000fa
:0414100000000000d8
:020000040000fa
:0200000401f009
:04000000f7bf000046
:020000040000fa
:0200000401f009
:04000400ff7f00007a
:020000040000fa
:0200000401f009
:04000800ffff0000f6
:020000040000fa
:0200000401f009
:04001400ffff0000ea
:020000040000fa
:0200000401f009
:04001800ffff0000e6
:00000001FF
