:020000040000fa
:080000000001040000000000f3
:020000040000fa
:04000800a80100004b
:020000040000fa
:04000c00a801000047
:020000040000fa
:04001000a801000043
:020000040000fa
:04001400a80100003f
:020000040000fa
:04001800a80100003b
:020000040000fa
:04001c00a801000037
:020000040000fa
:04002000a801000033
:020000040000fa
:04002400a80100002f
:020000040000fa
:040028009409000037
:020000040000fa
:04002c00a801000027
:020000040000fa
:04003000a801000023
:020000040000fa
:0400340002090000bd
:020000040000fa
:04003800a80100001b
:020000040000fa
:04003c00a801000017
:020000040000fa
:040040003a09000079
:020000040000fa
:040044005a09000055
:020000040000fa
:04004800a80100000b
:020000040000fa
:04004c00c8080000e0
:020000040000fa
:04005000a801000003
:020000040000fa
:040054009808000008
:020000040000fa
:04005800a8010000fb
:020000040000fa
:04005c00a8010000f7
:020000040000fa
:04006000a8010000f3
:020000040000fa
:04006400a8010000ef
:020000040000fa
:04006800a8010000eb
:020000040000fa
:04006c00a8010000e7
:020000040000fa
:04007000a8010000e3
:020000040000fa
:04007400a8010000df
:020000040000fa
:04007800a8010000db
:020000040000fa
:04007c00a8010000d7
:020000040000fa
:04008000a8010000d3
:020000040000fa
:04008400a8010000cf
:020000040000fa
:04008800a8010000cb
:020000040000fa
:04008c00a8010000c7
:020000040000fa
:04009000a8010000c3
:020000040000fa
:04009400a8010000bf
:020000040000fa
:04009800a8010000bb
:020000040000fa
:04009c00a8010000b7
:020000040000fa
:0400a000a8010000b3
:020000040000fa
:0400a400a8010000af
:020000040000fa
:0400a800a8010000ab
:020000040000fa
:0400ac00a8010000a7
:020000040000fa
:0400b000a8010000a3
:020000040000fa
:0400b400a80100009f
:020000040000fa
:0400b800a80100009b
:020000040000fa
:0400bc00a801000097
:020000040000fa
:0400c000a801000093
:020000040000fa
:0400c400a80100008f
:020000040000fa
:0400c800a80100008b
:020000040000fa
:0400cc00a801000087
:020000040000fa
:0400d000a801000083
:020000040000fa
:0400d400a80100007f
:020000040000fa
:0400d800a80100007b
:020000040000fa
:04010800a80100004a
:020000040000fa
:04010c00a801000046
:020000040000fa
:04011000a801000042
:020000040000fa
:04011400a80100003e
:020000040000fa
:04011800a80100003a
:020000040000fa
:04011c00a801000036
:020000040000fa
:04012000a801000032
:020000040000fa
:04012400a80100002e
:020000040000fa
:04012800a80100002a
:020000040000fa
:04012c00a801000026
:020000040000fa
:04013000a801000022
:020000040000fa
:04013400a80100001e
:020000040000fa
:04013800a80100001a
:020000040000fa
:04013c00a801000016
:020000040000fa
:04014000a801000012
:020000040000fa
:04014400a80100000e
:020000040000fa
:04014800a80100000a
:020000040000fa
:04014c00a801000006
:020000040000fa
:04015000a801000002
:020000040000fa
:04015400a8010000fe
:020000040000fa
:04015800a8010000fa
:020000040000fa
:04015c00a8010000f6
:020000040000fa
:04016000a8010000f2
:020000040000fa
:04016400a8010000ee
:020000040000fa
:04016800a8010000ea
:020000040000fa
:04016c00a8010000e6
:020000040000fa
:04017000a8010000e2
:020000040000fa
:04017400a8010000de
:020000040000fa
:04017800a8010000da
:020000040000fa
:04017c00a8010000d6
:020000040000fa
:04018000a8010000d2
:020000040000fa
:04018400a8010000ce
:020000040000fa
:04018800a8010000ca
:020000040000fa
:04018c00a8010000c6
:020000040000fa
:04019000a8010000c2
:020000040000fa
:04019400a8010000be
:020000040000fa
:04019800a8010000ba
:020000040000fa
:04019c00a8010000b6
:020000040000fa
:0401a000a8010000b2
:020000040000fa
:0401a400a8010000ae
:020000040000fa
:0401a800a8010000aa
:020000040000fa
:0401ac00a8010000a6
:020000040000fa
:0401b000a8010000a2
:020000040000fa
:0401b400a80100009e
:020000040000fa
:0401b800a80100009a
:020000040000fa
:0401bc00a801000096
:020000040000fa
:0401c000a801000092
:020000040000fa
:0401c400a80100008e
:020000040000fa
:0401c800a80100008a
:020000040000fa
:0401cc00a801000086
:020000040000fa
:0401d000a801000082
:020000040000fa
:0401d400a80100007e
:020000040000fa
:0401d800a80100007a
:020000040000fa
:100200002f8220000eff20000e0188000000000059
:10021000000020000000e000020032000001200089
:10022000200288000c000700c0aa20000100200066
:1002300011000700000020000000e0000200320072
:100240000000020000000000c609020000000000db
:100250000040da000000fe004440a9000000200039
:100260000000e0000300320000002000a001880030
:100270004440a8000000060091018800800078003a
:100280000000eb0015003700e280400032a0b4000f
:100290009101ba00e280400032a0b4009102ba009d
:1002a000e280400032a0b4000002eb00472bde00e9
:1002b000f507b200602ce10004003a000059eb00a1
:1002c0008301e900fdff3e00040037006128e100e2
:1002d000010032000082eb000b00070011c3ba00de
:1002e0001101ba000604e00003003a000200e00039
:1002f000e5ff3a0000000600f607b200960188000c
:1003000082007800f5ff37003159ba008301e90017
:100310000c0032002159ba008301e90008003200c4
:100320000400e00003003a00e280400032a0b40084
:10033000f5ff370011d9ba008301e900faff3a004e
:100340008100e800e180400032a0b4000000060017
:100350000040da000000fe0003f0a200889fbe000b
:100360008a9fbe008c1f780009010700100133002e
:100370006450e1004f0032006420e100520032007e
:1003800003826c0007003b000905d0000306d00083
:10039000820f54000c065d0002003900020032009a
:1003a00089017800030678008582550004003d002d
:1003b0000003fd008103fd008502ea008b854200f9
:1003c000840f720002003b0060001000e080180003
:1003d0006011b8000005eb007a28e1000a0039003e
:1003e00006007800c75ddd00f707b2008780750062
:1003f0002d003700828171000a01780061056000dc
:100400008180d1000080d3008502e900f9ff3b0024
:10041000060440008784480002003b00600414008a
:10042000e0841c000988a300070032008a81710063
:1004300082817100610164008904d1000884d300c5
:100440008b05e800170037000978a30013003a0075
:100450000b00e000130034008b05e90008044400a1
:1004600089844c000a4474000978a3000d003a0006
:100470000b00e000070034008b05e900080444008d
:1004800089844c0001003a000b0020000978a30089
:10049000f7ff32000001eb0002003700828171009b
:1004a0000a0178007f0007000cf0a70001f0a0000f
:1004b000c80037006420e10002003a00838f6c001e
:1004c000c80033000801be000200be00c1003700b2
:1004d000889fbe008a9fbe008c1f7800ac0007007a
:1004e000b300330003866c006450e1002e0032003c
:1004f0006420e100330032006150e1002f0032003f
:100500006120e1003100320085855500eb07b00025
:1005100009002000080420000500370008044400fa
:1005200089844c000a0031000603430087834b0096
:100530000001530081815b00f8ff33000203be001d
:100540000800a0000804440089844c00f6ff39002c
:10055000c639dd0083017300010032001300200062
:100560008904d1000884d3000998a3000500320053
:100570000800a7000300a0008904d1000884d3006c
:100580008b05e8008904d1000884d3000001eb004a
:100590000281d2004300070001f0a1000cf0a70087
:1005a00001f0a0008b0037006420e1008d003200d4
:1005b0000801be000200be00f7ff37006120e10025
:1005c000880032006000b800f3ff37000000200010
:1005d00001f82700f0ff3700839f68000100e0006a
:1005e00002003d0060001000e08018000300e00001
:1005f00002003d0060011100e0811900b000070019
:100600004f00e00002003b0060001000e080180096
:100610000000060014002000b9003700f4ff2f008e
:10062000b70037000001be00440007000470a700b7
:1006300003f0a10003f8a30013003a006509b1001c
:1006400010003200090035006928e1000200350081
:1006500001002800000005000000400081804800e3
:100660008502e900fcff3a0000000600f88f420016
:10067000050035008100d1000080d3008502e8002c
:10068000fcff3a00000006008000eb0000000500bf
:100690004f89de0082017800b40037006011b80095
:1006a000c200370081002000618055000b003d0032
:1006b0000b00200061fe2f000100e1001d0034004e
:1006c00082817100610164008904d1000884d30033
:1006d0000000e800faff3a007100200061006400a9
:1006e0000300700002006000090032006104440051
:1006f000e0844c000988a500050032008b05e80065
:100700006808e10002003a008904d1000884d3009f
:10071000f20f20000258e10005003d00c75ddd003a
:10072000f907b20089807500080078000000060013
:100730000bf827008b00780000000500c70ade00d8
:10074000f107b200f50fb20008003200e1cf42001d
:10075000020032000170a00024000500810f70002b
:10076000010032000408050044000500810f7000fc
:1007700002003a00140005008502e9000000400074
:1007800081c04800fcff3b000170a0002400050070
:100790000004be00e9ff07000003be000405be0020
:1007a0000200be00e5ff0700844f75000000060050
:1007b0000200be006450e100050036006420e10044
:1007c000020036000968a30001003a000800be00dc
:1007d0000160a0004f0678004f05be004f04be0028
:1007e00000000600f0ff2f00f1ff2700f9ff37009f
:1007f000889fbe008a9fbe008c1f7800e4ff070020
:10080000ebff330003866c006450e10024003200eb
:100810006420e100270032006150e1002200320034
:100820006120e100210032008b854200eb07b1001e
:100830000134b800003ab8000804420089844a0034
:10084000013ab8000030b8008880400009014a0031
:10085000040033000000400081804800020149008c
:100860008b05e900c909dd00830170000100320039
:1008700013002000c814de004814dd004709de0024
:100880001200b200c808de000884700085ff07006f
:1008900001f0a1000cf0a70001f0a000cdff37008f
:1008a0006120e100cfff32000801be000200be005f
:1008b000f7ff37006150e100fcff3a00c9ff370045
:1008c0006022b800060220000000d0008180d20023
:1008d0000482d2008582d2000000a00002025200f1
:1008e00083825a00030031000202420083824a00e0
:1008f0000000a1000603e900f3ff3a000000060033
:10090000889fbe008a9fbe00841f7800a0ff07005a
:100910004f00780011003300f0ff2f00838f6c0030
:1009200006003b00040565000a00a7000800370028
:1009300009f0a6001000200008003700820f5400c4
:10094000838f5c00030039001000200001003e008e
:100950000000200009f0a7000000ea004f05be00db
:100960004f04be000000e00000000600881f780071
:10097000030478000300e00007003d006000100061
:10098000e080180060011900e081190002003b00be
:1009900001f02d00030037000400070008f0a70055
:1009a00001f0a0004f04780000000600889fbe0000
:1009b0008a9fbe00008270000402710004827100f0
:1009c000260032000004be000200be006011b80024
:1009d0006b092000950220000182cf000a00390037
:1009e0000541b1000082cf00070039000541b10088
:1009f0000982cf00040039000541b1000882cf0010
:100a0000010039000541b1000542520012003200d8
:100a10000a003b0082817100610164008100d10005
:100a20000080d3008984d3000884d3008b05e800bc
:100a30000442e800f7ff3a000700370008044400ca
:100a400089844c0000004800818048008b05e90043
:100a50000442e900f9ff3a0012ff07004f05be000b
:080a60004f04be000000060077
:020000040000fa
:100a68000200fa00004f78000000000071108000ba
:100a780000102000008060000000e000fbff320052
:100a88001e80fb00801088000080fa00000006002d
:100a98000200fa00000f78000000000071108000ca
:100aa80000102000008060000000e000fbff320022
:100ab8001e0078004800de0080108800000000005a
:100ac8007110800000102000008060000000e0002d
:100ad800fbff32009e007800811088000080fa0039
:100ae800000006000c00fa00889fbe00400798002e
:100af80051079800304080008000eb00e5fe0700b9
:100b080002002000433b24006ffe07000004be00e3
:100b18004e0090008000eb00defe07000001be00e2
:100b28000800be0030ff0700008fbe003040800084
:100b38008000eb00d7fe070002002000433b2400a2
:100b480061fe07000004be005e0090008000eb001c
:100b5800d0fe07000001be000800be0022ff07000b
:100b6800200798003107980018c0b3002e019000a4
:100b7800be0190001e00be00a4fe07000000e000b9
:100b8800010034000044eb000804e0001b003200c0
:100b9800204080008000eb00befe070018c0b300b4
:100ba8001e01be009bfe07000000e00001003d00a2
:100bb8000044eb000804e0000e00320020408000f2
:100bc8008000eb00b3fe070018c0b3002e019000b0
:100bd800be0190008dfe07000000e0000100350016
:100be8000044eb000804e00002003200d522a9000e
:100bf8001c003700d522a8001a00370020408000ca
:100c08008000eb00a3fe070018c0b3001e01be0061
:100c180080fe07000000e00001003d000044eb00fa
:100c28000804e0000c003a00204080008000eb003f
:100c380098fe070018c0b3002e019000be01900076
:100c480072fe07000000e000010035000044eb00e0
:100c58000804e00002003200d522a9000100370094
:100c6800d522a8004f04be000080fa00000006004c
:100c78000e00fa00889fbe00204f98006107980078
:100c88006000b800008fbe006000b8002007980020
:100c9800310798000000eb004007980030408000c2
:100ca8008000eb007bfe070002002000433b24008d
:100cb80005fe07000004be006e0090008000eb00f7
:100cc80074fe07000001be000800be00c6fe070053
:100cd8002007980031079800304080008000eb0022
:100ce8006cfe07000004be002e4890008080fb00c8
:100cf800400620000088b900000078008000eb0062
:100d080064fe07002e019000be01900090fd0700d0
:100d18000001be000800be008dfd0700008fbe0068
:100d28002e4890008080fb00400620000088b90013
:100d380000007800400798004e0090008000eb000b
:100d480054fe070018c0b3002e019000be019000a9
:100d58002efe07000000e000010034000044eb0014
:100d68000804e000270032002e4890008080fb0035
:100d7800400620000088b900000078008000eb00e1
:100d880044fe07000001be002e009000be00900047
:100d98006ffd0700008fbe00204080008000eb0040
:100da8003cfe070018c0b3001e01be0019fe070074
:100db8000000e00001003d000044eb000804e000f2
:100dc8000e003200204080008000eb0031fe07005a
:100dd80018c0b3002e019000be0190000bfe070062
:100de8000000e000010035000044eb000804e000ca
:100df80002003200d522a9002e003700d522a80013
:100e08002c003700304080008000eb0021fe0700f6
:100e18000004be002e4890008080fb0040062000a1
:100e28000088b900000078008000eb0019fe070078
:100e38002e019000be01900045fd07000001be0094
:100e48000800be0042fd0700008fbe002040800061
:100e58008000eb000ffe070018c0b3001e01be00a3
:100e6800ecfd07000000e00001003d000044eb003d
:100e78000804e0000c003a00204080008000eb00ed
:100e880004fe070018c0b3002e019000be019000b8
:100e9800defd07000000e000010035000044eb0023
:100ea8000804e00002003200d522a9000100370042
:100eb800d522a8004f04be000080fa0000000600fa
:100ec8001000fa00889fbe00404f980071079800f4
:100ed8006000b800008fbe006000b80020079800ce
:100ee800310798000000eb00400798000000eb0075
:100ef80050079800811620007e0090000080500066
:100f080050079800304080008000eb00e1fd0700aa
:100f180002002000433b24006bfd07000004be00d4
:100f28005e0090008000eb00dafd07000001be00c3
:100f38000800be002cfe0700200798003107980023
:100f4800304080008000eb00d2fd07000004be00a6
:100f58004e4890008080fb00400620000088b900c1
:100f6800000078008000eb00cafd07002e01900009
:100f7800be019000f6fc07000001be000800be009c
:100f8800f3fc0700008fbe004e4890008080fb00f5
:100f9800400620000088b90000007800400798004b
:100fa8004e0090008000eb00bafd070018c0b300a7
:100fb8002e019000be01900094fd07000000e000a3
:100fc800010034000044eb000804e0002700320070
:100fd8004e4890008080fb00400620000088b90041
:100fe80000007800cf80de00a7fd07000001be00ea
:100ff8002e009000be009000d5fc0700008fbe00b8
:10100800204080008000eb00a2fd070018c0b3005c
:101018001e01be007ffd07000000e00001003d004a
:101028000044eb000804e0000e003200204080007d
:101038008000eb0097fd070018c0b3002e01900058
:10104800be01900071fd07000000e00001003500be
:101058000044eb000804e00002003200c982a80046
:101068002e003700c982a9002c00370030408000cc
:101078008000eb0087fd07000004be004e4890008a
:101088008080fb00400620000088b900000078003e
:101098008000eb007ffd07002e019000be0190004c
:1010a800abfc07000001be000800be00a8fc07005a
:1010b800008fbe00204080008000eb0075fd070017
:1010c80018c0b3001e01be0052fd07000000e0007a
:1010d80001003d000044eb000804e0000c003a0069
:1010e800204080008000eb006afd070018c0b300b4
:1010f8002e019000be01900044fd07000000e000b2
:10110800010035000044eb000804e0000200320052
:10111800c982a80001003700c982a9004f04be0097
:101128000080fa0000000600801f78003400f800f4
:1011380000002000a00188000000fa008560a900d6
:1011480000148000a040880010148000b04088007f
:1011580030148000c040880040148000d0408800cf
:1011680050148000e040880080148000f04088001f
:10117800c0148000004188000080fa003400f900a3
:101188004f007800004006003600f800809fbe003f
:10119800829fbe00849fbe00869fbe003400f80078
:1011a80000002000a00188000000fa008520a900a6
:1011b8009110800040042000808f500006003a0003
:1011c800804080009140800014fd070000007800f6
:1011d8002ffe070001003700000000000080fa0021
:1011e8003400f9004f03be004f02be004f01be009d
:1011f8004f00be003600f90000400600809fbe0088
:10120800821f78003400f80000002000a001880048
:101218000000fa008460a900411680000020200028
:101228000080600000f0a7000000ea000000e9006c
:101238004f00de00004078000080fb006100600085
:101248004900dd0042168000f1df2f0081006100b7
:1012580001007000401688000080fa003400f90090
:101268004f0178004f00be0000400600801f780044
:101278003400f80000002000a00188000000fa00f7
:1012880084c0a900004080000000e80000408800f9
:10129800204080000000e800204088000080fa001c
:1012a8003400f9004f00780000400600809fbe001f
:1012b800821f78003400f80000002000a001880098
:1012c8000000fa0084e0a9004116800000402000d8
:1012d8000080600000f0a7000000ea000000e900bc
:1012e8004f00de00004078000080fb0061006000d5
:1012f8004a00dd0042168000f1bf2f008100610026
:1013080001007000401688000868ef000080fa00ad
:101318003400f9004f0178004f00be00004006007d
:10132800809fbe003400f80000002000a001880063
:101338000000fa008400a90010408000000040006e
:101348008000780000408000808f5000030031004a
:1013580020408000304088000428ef0000408000d2
:10136800104088000028ef0010c0b30008e8b7005c
:101378000a21ef000080fa003400f9004f00be0097
:10138800004006000400fa00000f780011079800da
:10139800600007008200a8008c00a8008400a90053
:1013a8000421a900200880000040a0000050a000ef
:1013b80020088800f0e92100100888008460a9004e
:1013c8008c60a80005e1a8001021a9008008800011
:1013d8000040a1000050a10080088800800c200077
:1013e8006008880084c0a9008cc0a80011e1a8008a
:1013f8001221a900900880000040a0000050a00021
:1014080090088800f0e921007008880084e0a900ad
:101418008ce0a80013e1a8000de2a8000d42a80086
:101428000f42a800a0002000a01088008520a90075
:101438008d20a80021158000f00f2e00808060000c
:1014480000f02000010070002015880021158000a0
:1014580000fc2f0000806000f000b3002015880019
:10146800a342a800101580000020a0000030a000b2
:101478000040a0000050a000101588000015800052
:101488000050a0000060a0000070a00000158800b7
:10149800a042a800a022a8000080eb0050158800f8
:1014a800a1e2a8008560a9008d60a80008c8bf0057
:1014b8000004e0000d00320021032000a0c0b300aa
:1014c800ebfd0700304080008000eb000001be000b
:1014d80000d82800b10520003dfc07006afc070081
:1014e8008040880091408800f0ff3700d522a8008e
:1014f8000028ef000228ef000428ef000628ef007c
:101508000868ef006000b8008040880091408800bb
:10151800e6ff37000000fa00c742a900c722a90069
:10152800d242a900c782a900d322a9000080eb00fb
:1015380040158800c942a800c922a800d442a800c2
:10154800d522a800c982a8000080fa000000060081
:020000040000fa
:10155800000800002200000000000000b40a80001b
:020000040000fa
:04156800000000007f
:020000040000fa
:0200000401f009
:04000000f7bf000046
:020000040000fa
:0200000401f009
:04000400ff7f00007a
:020000040000fa
:0200000401f009
:04000800ffff0000f6
:020000040000fa
:0200000401f009
:04001400ffff0000ea
:020000040000fa
:0200000401f009
:04001800ffff0000e6
:00000001FF
